{
  "_format": "hh-sol-artifact-1",
  "contractName": "CoreGameDiamond",
  "sourceName": "contracts/CoreGameDiamond.sol",
  "abi": [
    {
      "inputs": [
        {
          "internalType": "address",
          "name": "_contractOwner",
          "type": "address"
        },
        {
          "components": [
            {
              "internalType": "string",
              "name": "name",
              "type": "string"
            },
            {
              "internalType": "address",
              "name": "_address",
              "type": "address"
            }
          ],
          "internalType": "struct InitialFaucets[]",
          "name": "_initalFaucets",
          "type": "tuple[]"
        },
        {
          "components": [
            {
              "internalType": "address",
              "name": "facetAddress",
              "type": "address"
            },
            {
              "internalType": "enum IDiamond.FacetCutAction",
              "name": "action",
              "type": "uint8"
            },
            {
              "internalType": "bytes4[]",
              "name": "functionSelectors",
              "type": "bytes4[]"
            }
          ],
          "internalType": "struct IDiamond.FacetCut[]",
          "name": "_facetCuts",
          "type": "tuple[]"
        }
      ],
      "stateMutability": "payable",
      "type": "constructor"
    },
    {
      "inputs": [
        {
          "internalType": "bytes4",
          "name": "_selector",
          "type": "bytes4"
        }
      ],
      "name": "CannotAddFunctionToDiamondThatAlreadyExists",
      "type": "error"
    },
    {
      "inputs": [
        {
          "internalType": "bytes4[]",
          "name": "_selectors",
          "type": "bytes4[]"
        }
      ],
      "name": "CannotAddSelectorsToZeroAddress",
      "type": "error"
    },
    {
      "inputs": [
        {
          "internalType": "bytes4",
          "name": "_selector",
          "type": "bytes4"
        }
      ],
      "name": "CannotRemoveFunctionThatDoesNotExist",
      "type": "error"
    },
    {
      "inputs": [
        {
          "internalType": "bytes4",
          "name": "_selector",
          "type": "bytes4"
        }
      ],
      "name": "CannotRemoveImmutableFunction",
      "type": "error"
    },
    {
      "inputs": [
        {
          "internalType": "bytes4",
          "name": "_selector",
          "type": "bytes4"
        }
      ],
      "name": "CannotReplaceFunctionThatDoesNotExists",
      "type": "error"
    },
    {
      "inputs": [
        {
          "internalType": "bytes4",
          "name": "_selector",
          "type": "bytes4"
        }
      ],
      "name": "CannotReplaceFunctionWithTheSameFunctionFromTheSameFacet",
      "type": "error"
    },
    {
      "inputs": [
        {
          "internalType": "bytes4[]",
          "name": "_selectors",
          "type": "bytes4[]"
        }
      ],
      "name": "CannotReplaceFunctionsFromFacetWithZeroAddress",
      "type": "error"
    },
    {
      "inputs": [
        {
          "internalType": "bytes4",
          "name": "_selector",
          "type": "bytes4"
        }
      ],
      "name": "CannotReplaceImmutableFunction",
      "type": "error"
    },
    {
      "inputs": [
        {
          "internalType": "uint8",
          "name": "_action",
          "type": "uint8"
        }
      ],
      "name": "IncorrectFacetCutAction",
      "type": "error"
    },
    {
      "inputs": [
        {
          "internalType": "address",
          "name": "_initializationContractAddress",
          "type": "address"
        },
        {
          "internalType": "bytes",
          "name": "_calldata",
          "type": "bytes"
        }
      ],
      "name": "InitializationFunctionReverted",
      "type": "error"
    },
    {
      "inputs": [
        {
          "internalType": "address",
          "name": "_contractAddress",
          "type": "address"
        },
        {
          "internalType": "string",
          "name": "_message",
          "type": "string"
        }
      ],
      "name": "NoBytecodeAtAddress",
      "type": "error"
    },
    {
      "inputs": [
        {
          "internalType": "address",
          "name": "_facetAddress",
          "type": "address"
        }
      ],
      "name": "NoSelectorsProvidedForFacetForCut",
      "type": "error"
    },
    {
      "inputs": [
        {
          "internalType": "address",
          "name": "_user",
          "type": "address"
        },
        {
          "internalType": "address",
          "name": "_contractOwner",
          "type": "address"
        }
      ],
      "name": "NotContractOwner",
      "type": "error"
    },
    {
      "inputs": [
        {
          "internalType": "address",
          "name": "_facetAddress",
          "type": "address"
        }
      ],
      "name": "RemoveFacetAddressMustBeZeroAddress",
      "type": "error"
    },
    {
      "anonymous": false,
      "inputs": [
        {
          "components": [
            {
              "internalType": "address",
              "name": "facetAddress",
              "type": "address"
            },
            {
              "internalType": "enum IDiamond.FacetCutAction",
              "name": "action",
              "type": "uint8"
            },
            {
              "internalType": "bytes4[]",
              "name": "functionSelectors",
              "type": "bytes4[]"
            }
          ],
          "indexed": false,
          "internalType": "struct IDiamond.FacetCut[]",
          "name": "_diamondCut",
          "type": "tuple[]"
        },
        {
          "indexed": false,
          "internalType": "address",
          "name": "_init",
          "type": "address"
        },
        {
          "indexed": false,
          "internalType": "bytes",
          "name": "_calldata",
          "type": "bytes"
        },
        {
          "indexed": false,
          "internalType": "string[]",
          "name": "_name",
          "type": "string[]"
        }
      ],
      "name": "DiamondCutName",
      "type": "event"
    },
    {
      "anonymous": false,
      "inputs": [
        {
          "indexed": true,
          "internalType": "address",
          "name": "facet",
          "type": "address"
        },
        {
          "indexed": false,
          "internalType": "string",
          "name": "name",
          "type": "string"
        }
      ],
      "name": "FacetRegistered",
      "type": "event"
    },
    {
      "anonymous": false,
      "inputs": [
        {
          "indexed": true,
          "internalType": "address",
          "name": "facet",
          "type": "address"
        },
        {
          "indexed": false,
          "internalType": "string",
          "name": "name",
          "type": "string"
        }
      ],
      "name": "FacetUnregistered",
      "type": "event"
    },
    {
      "anonymous": false,
      "inputs": [
        {
          "indexed": true,
          "internalType": "address",
          "name": "previousOwner",
          "type": "address"
        },
        {
          "indexed": true,
          "internalType": "address",
          "name": "newOwner",
          "type": "address"
        }
      ],
      "name": "OwnershipTransferred",
      "type": "event"
    },
    {
      "stateMutability": "payable",
      "type": "fallback"
    },
    {
      "inputs": [
        {
          "components": [
            {
              "internalType": "address",
              "name": "facetAddress",
              "type": "address"
            },
            {
              "internalType": "enum IDiamond.FacetCutAction",
              "name": "action",
              "type": "uint8"
            },
            {
              "internalType": "bytes4[]",
              "name": "functionSelectors",
              "type": "bytes4[]"
            }
          ],
          "internalType": "struct IDiamond.FacetCut[]",
          "name": "_facetCuts",
          "type": "tuple[]"
        },
        {
          "internalType": "string[]",
          "name": "facetName",
          "type": "string[]"
        }
      ],
      "name": "deployFacet",
      "outputs": [],
      "stateMutability": "nonpayable",
      "type": "function"
    },
    {
      "inputs": [],
      "name": "getSelectors",
      "outputs": [
        {
          "internalType": "bytes4[]",
          "name": "",
          "type": "bytes4[]"
        }
      ],
      "stateMutability": "view",
      "type": "function"
    },
    {
      "inputs": [],
      "name": "owner",
      "outputs": [
        {
          "internalType": "address",
          "name": "",
          "type": "address"
        }
      ],
      "stateMutability": "view",
      "type": "function"
    },
    {
      "inputs": [
        {
          "internalType": "bytes4",
          "name": "_interfaceId",
          "type": "bytes4"
        }
      ],
      "name": "supportsInterface",
      "outputs": [
        {
          "internalType": "bool",
          "name": "",
          "type": "bool"
        }
      ],
      "stateMutability": "view",
      "type": "function"
    },
    {
      "inputs": [
        {
          "internalType": "address",
          "name": "_newOwner",
          "type": "address"
        }
      ],
      "name": "transferOwnership",
      "outputs": [],
      "stateMutability": "nonpayable",
      "type": "function"
    },
    {
      "stateMutability": "payable",
      "type": "receive"
    }
  ],
  "bytecode": "0x608060405260405161316c38038061316c83398101604081905261002291611108565b7fc8fcad8db84d3cc18b4c41d551ea0ee66dd599cde068d998e57d5e09332c131f80546001600160a01b0319166001600160a01b03851617905561007f6040518060600160405280602381526020016130e8602391398351610171565b5f82516001600160401b0381111561009957610099610edb565b6040519080825280602002602001820160405280156100cc57816020015b60608152602001906001900390816100b75790505b5090505f5b835181101561011c578381815181106100ec576100ec61129b565b60200260200101515f01518282815181106101095761010961129b565b60209081029190910101526001016100d1565b5081511561014457610144825f60405180602001604052805f815250846101be60201b60201c565b6040805180820190915260048152636865726560e01b6020820152610168906103ef565b505050506116ad565b6101ba82826040516024016101879291906112da565b60408051601f198184030181529190526020810180516001600160e01b03908116632d839cb360e21b1790915261043916565b5050565b805184511461022d5760405162461bcd60e51b815260206004820152603060248201527f466163657443757420616e64206e616d6520617272617973206d75737420626560448201526f040e8d0ca40e6c2daca40d8cadccee8d60831b60648201526084015b60405180910390fd5b5f5b84518110156103a1575f85828151811061024b5761024b61129b565b60200260200101516020015190505f86838151811061026c5761026c61129b565b60200260200101515f015190505f87848151811061028c5761028c61129b565b602002602001015160400151905080515f036102c65760405163e767f91f60e01b81526001600160a01b0383166004820152602401610224565b5f8360028111156102d9576102d96112fb565b03610316576102e8828261044c565b610311828686815181106102fe576102fe61129b565b60200260200101516105ec60201b60201c565b610396565b600183600281111561032a5761032a6112fb565b03610339576102e8828261072c565b600283600281111561034d5761034d6112fb565b036103655761035c82826108ad565b61031182610b21565b826002811115610377576103776112fb565b604051633ff4d20f60e11b815260ff9091166004820152602401610224565b50505060010161022f565b507f7c228c50d45193c25d23628673263aa4070e0bc1d669d0590a878189231c1f8b848484846040516103d794939291906113ad565b60405180910390a16103e98383610d69565b50505050565b610436816040516024016104039190611490565b60408051601f198184030181529190526020810180516001600160e01b0390811663104c13eb60e21b1790915261043916565b50565b61043681610e2b60201b6103c01760201c565b6001600160a01b03821661047557806040516302b8da0760e21b815260040161022491906114a9565b5f8051602061314c83398151915254604080516060810190915260218082525f8051602061307e83398151915292916104b89186919061312b6020830139610e4a565b5f5b83518110156105e5575f8482815181106104d6576104d661129b565b6020908102919091018101516001600160e01b031981165f908152918690526040909120549091506001600160a01b0316156105315760405163ebbf5d0760e01b81526001600160e01b031982166004820152602401610224565b6040805180820182526001600160a01b03808916825261ffff80871660208085019182526001600160e01b031987165f9081528a8252958620945185549251909316600160a01b026001600160b01b0319909216929093169190911717909155600180870180549182018155835291206008820401805460e084901c60046007909416939093026101000a92830263ffffffff9093021916919091179055826105d9816114cf565b935050506001016104ba565b5050505050565b6001600160a01b0382165f9081525f8051602061310b83398151915260208190526040909120805461061d906114ef565b15905061066c5760405162461bcd60e51b815260206004820152601860248201527f466163657420616c7265616479207265676973746572656400000000000000006044820152606401610224565b6001600160a01b0383165f90815260208290526040902061068d838261156b565b508281600101836040516106a19190611625565b908152604051908190036020908101822080546001600160a01b039485166001600160a01b0319918216179091556002850180546001810182555f918252929020909101805493871693909116831790557f2377f1cf306e5c9aef25749e1ab1ad80122613cb1998f0f4af8808250046d9dc9061071f908590611490565b60405180910390a2505050565b6001600160a01b038216610755578060405163cd98a96f60e01b815260040161022491906114a9565b5f5f8051602061307e8339815191529050610788836040518060600160405280602581526020016130c360259139610e4a565b5f5b82518110156103e9575f8382815181106107a6576107a661129b565b6020908102919091018101516001600160e01b031981165f908152918590526040909120549091506001600160a01b03168061080157604051637479f93960e01b81526001600160e01b031983166004820152602401610224565b856001600160a01b0316816001600160a01b03160361083f57604051631ac6ce8d60e11b81526001600160e01b031983166004820152602401610224565b306001600160a01b0382160361087457604051632901806d60e11b81526001600160e01b031983166004820152602401610224565b506001600160e01b0319165f90815260208390526040902080546001600160a01b0319166001600160a01b03861617905560010161078a565b6001600160a01b038216156108e05760405163d091bc8160e01b81526001600160a01b0383166004820152602401610224565b5f8051602061314c833981519152545f8051602061307e833981519152905f5b83518110156105e5575f84828151811061091c5761091c61129b565b6020908102919091018101516001600160e01b031981165f9081528683526040908190208151808301909252546001600160a01b038116808352600160a01b90910461ffff16938201939093529092509061099657604051637a08a22d60e01b81526001600160e01b031983166004820152602401610224565b8051306001600160a01b03909116036109ce57604051630df5fd6160e31b81526001600160e01b031983166004820152602401610224565b836109d881611640565b94505083816020015161ffff1614610ab2575f856001018581548110610a0057610a0061129b565b905f5260205f2090600891828204019190066004029054906101000a900460e01b90508086600101836020015161ffff1681548110610a4157610a4161129b565b5f91825260208083206008830401805463ffffffff60079094166004026101000a938402191660e09590951c92909202939093179055838201516001600160e01b03199390931681529087905260409020805461ffff60a01b1916600160a01b61ffff909316929092029190911790555b84600101805480610ac557610ac5611655565b5f828152602080822060085f1990940193840401805463ffffffff600460078716026101000a0219169055919092556001600160e01b0319909316815291859052506040902080546001600160b01b0319169055600101610900565b6001600160a01b0381165f9081525f8051602061310b8339815191526020819052604082208054919291610b54906114ef565b80601f0160208091040260200160405190810160405280929190818152602001828054610b80906114ef565b8015610bcb5780601f10610ba257610100808354040283529160200191610bcb565b820191905f5260205f20905b815481529060010190602001808311610bae57829003601f168201915b505050506001600160a01b0385165f908152602085905260408120929350610bf4929150610e76565b8160010181604051610c069190611625565b90815260405190819003602001902080546001600160a01b031916905560028201545f5b81811015610d2157846001600160a01b0316846002018281548110610c5157610c5161129b565b5f918252602090912001546001600160a01b031603610d195760028401610c79600184611669565b81548110610c8957610c8961129b565b5f918252602090912001546002850180546001600160a01b039092169183908110610cb657610cb661129b565b905f5260205f20015f6101000a8154816001600160a01b0302191690836001600160a01b0316021790555083600201805480610cf457610cf4611655565b5f8281526020902081015f1990810180546001600160a01b0319169055019055610d21565b600101610c2a565b50836001600160a01b03167fdd25530efe1115f0ecc2b712c0ea01f24355cb704f06b16cf262a22b60e514fe83604051610d5b9190611490565b60405180910390a250505050565b6001600160a01b038216610d7b575050565b610d9d8260405180606001604052806025815260200161309e60259139610e4a565b5f80836001600160a01b031683604051610db79190611625565b5f60405180830381855af49150503d805f8114610def576040519150601f19603f3d011682016040523d82523d5f602084013e610df4565b606091505b5091509150816103e957805115610e0e5780518060208301fd5b838360405163192105d760e01b8152600401610224929190611682565b5f6a636f6e736f6c652e6c6f6790505f80835160208501845afa505050565b813b5f819003610e7157828260405163919834b960e01b8152600401610224929190611682565b505050565b508054610e82906114ef565b5f825580601f10610e91575050565b601f0160209004905f5260205f209081019061043691905b80821115610ebc575f8155600101610ea9565b5090565b80516001600160a01b0381168114610ed6575f80fd5b919050565b634e487b7160e01b5f52604160045260245ffd5b604051606081016001600160401b0381118282101715610f1157610f11610edb565b60405290565b604080519081016001600160401b0381118282101715610f1157610f11610edb565b604051601f8201601f191681016001600160401b0381118282101715610f6157610f61610edb565b604052919050565b5f6001600160401b03821115610f8157610f81610edb565b5060051b60200190565b5f5b83811015610fa5578181015183820152602001610f8d565b50505f910152565b5f82601f830112610fbc575f80fd5b8151610fcf610fca82610f69565b610f39565b8082825260208201915060208360051b860101925085831115610ff0575f80fd5b602085015b838110156110fe5780516001600160401b03811115611012575f80fd5b86016060818903601f19011215611027575f80fd5b61102f610eef565b61103b60208301610ec0565b815260408201516003811061104e575f80fd5b602082015260608201516001600160401b0381111561106b575f80fd5b60208184010192505088601f830112611082575f80fd5b8151611090610fca82610f69565b8082825260208201915060208360051b86010192508b8311156110b1575f80fd5b6020850194505b828510156110e85784516001600160e01b0319811681146110d7575f80fd5b8252602094850194909101906110b8565b6040840152505084525060209283019201610ff5565b5095945050505050565b5f805f6060848603121561111a575f80fd5b61112384610ec0565b60208501519093506001600160401b0381111561113e575f80fd5b8401601f8101861361114e575f80fd5b805161115c610fca82610f69565b8082825260208201915060208360051b85010192508883111561117d575f80fd5b602084015b838110156112655780516001600160401b0381111561119f575f80fd5b85016040818c03601f190112156111b4575f80fd5b6111bc610f17565b60208201516001600160401b038111156111d4575f80fd5b82016020810190603f018d136111e8575f80fd5b80516001600160401b0381111561120157611201610edb565b611214601f8201601f1916602001610f39565b8181528e6020838501011115611228575f80fd5b611239826020830160208601610f8b565b83525061124a905060408301610ec0565b60208201528085525050602083019250602081019050611182565b506040880151909550925050506001600160401b03811115611285575f80fd5b61129186828701610fad565b9150509250925092565b634e487b7160e01b5f52603260045260245ffd5b5f81518084526112c6816020860160208601610f8b565b601f01601f19169290920160200192915050565b604081525f6112ec60408301856112af565b90508260208301529392505050565b634e487b7160e01b5f52602160045260245ffd5b5f8151808452602084019350602083015f5b828110156113495781516001600160e01b031916865260209586019590910190600101611321565b5093949350505050565b5f82825180855260208501945060208160051b830101602085015f5b838110156113a157601f1985840301885261138b8383516112af565b602098890198909350919091019060010161136f565b50909695505050505050565b5f608082016080835280875180835260a08501915060a08160051b8601019250602089015f5b8281101561144c57868503609f19018452815180516001600160a01b0316865260208101516003811061141457634e487b7160e01b5f52602160045260245ffd5b806020880152506040810151905060606040870152611436606087018261130f565b95505060209384019391909101906001016113d3565b5050506001600160a01b038716602085015250828103604084015261147181866112af565b905082810360608401526114858185611353565b979650505050505050565b602081525f6114a260208301846112af565b9392505050565b602081525f6114a2602083018461130f565b634e487b7160e01b5f52601160045260245ffd5b5f61ffff821661ffff81036114e6576114e66114bb565b60010192915050565b600181811c9082168061150357607f821691505b60208210810361152157634e487b7160e01b5f52602260045260245ffd5b50919050565b601f821115610e7157805f5260205f20601f840160051c8101602085101561154c5750805b601f840160051c820191505b818110156105e5575f8155600101611558565b81516001600160401b0381111561158457611584610edb565b6115988161159284546114ef565b84611527565b6020601f8211600181146115ca575f83156115b35750848201515b5f19600385901b1c1916600184901b1784556105e5565b5f84815260208120601f198516915b828110156115f957878501518255602094850194600190920191016115d9565b508482101561161657868401515f19600387901b60f8161c191681555b50505050600190811b01905550565b5f8251611636818460208701610f8b565b9190910192915050565b5f8161164e5761164e6114bb565b505f190190565b634e487b7160e01b5f52603160045260245ffd5b8181038181111561167c5761167c6114bb565b92915050565b6001600160a01b03831681526040602082018190525f906116a5908301846112af565b949350505050565b6119c4806116ba5f395ff3fe60806040526004361061004d575f3560e01c806301ffc9a7146100f45780634b503f0b146101285780638da5cb5b14610149578063d1582b3714610175578063f2fde38b1461019457610054565b3661005457005b5f80356001600160e01b03191681525f8051602061190483398151915260205260409020546001600160a01b0316806100d45760405162461bcd60e51b815260206004820181905260248201527f4469616d6f6e643a2046756e6374696f6e20646f6573206e6f7420657869737460448201526064015b60405180910390fd5b365f80375f80365f845af43d5f803e8080156100ee573d5ff35b3d5ffd5b005b3480156100ff575f80fd5b5061011361010e366004611137565b6101b3565b60405190151581526020015b60405180910390f35b348015610133575f80fd5b5061013c6101f5565b60405161011f9190611157565b348015610154575f80fd5b5061015d610286565b6040516001600160a01b03909116815260200161011f565b348015610180575f80fd5b506100f261018f366004611337565b610294565b34801561019f575f80fd5b506100f26101ae3660046114d4565b61032f565b6001600160e01b031981165f9081527fc8fcad8db84d3cc18b4c41d551ea0ee66dd599cde068d998e57d5e09332c131e602052604081205460ff165b92915050565b60605f8051602061190483398151915260010180548060200260200160405190810160405280929190818152602001828054801561027c57602002820191905f5260205f20905f905b82829054906101000a900460e01b6001600160e01b0319168152602001906004019060208260030104928301926001038202915080841161023e5790505b5050505050905090565b5f61028f6103df565b905090565b61029c6103df565b6001600160a01b0316336001600160a01b03161461030a5760405162461bcd60e51b815260206004820152602560248201527f4f6e6c7920636f6e7472616374206f776e65722063616e206465706c6f792066604482015264616365747360d81b60648201526084016100cb565b81511561032b5761032b825f60405180602001604052805f8152508461040d565b5050565b610337610633565b5f6103406103df565b7fc8fcad8db84d3cc18b4c41d551ea0ee66dd599cde068d998e57d5e09332c131f80546001600160a01b0319166001600160a01b0385161790559050816001600160a01b0316816001600160a01b03167f8be0079c531659141344cd1fd0a4f28419497f9722a3daafe3b4186f6b6457e060405160405180910390a35050565b5f6a636f6e736f6c652e6c6f6790505f80835160208501845afa505050565b7fc8fcad8db84d3cc18b4c41d551ea0ee66dd599cde068d998e57d5e09332c131f546001600160a01b031690565b80518451146104775760405162461bcd60e51b815260206004820152603060248201527f466163657443757420616e64206e616d6520617272617973206d75737420626560448201526f040e8d0ca40e6c2daca40d8cadccee8d60831b60648201526084016100cb565b5f5b84518110156105e5575f858281518110610495576104956114ed565b60200260200101516020015190505f8683815181106104b6576104b66114ed565b60200260200101515f015190505f8784815181106104d6576104d66114ed565b602002602001015160400151905080515f036105105760405163e767f91f60e01b81526001600160a01b03831660048201526024016100cb565b5f83600281111561052357610523611501565b0361055a5761053282826106a6565b61055582868681518110610548576105486114ed565b602002602001015161084f565b6105da565b600183600281111561056e5761056e611501565b0361057d5761053282826109a2565b600283600281111561059157610591611501565b036105a9576105a08282610b05565b61055582610d78565b8260028111156105bb576105bb611501565b604051633ff4d20f60e11b815260ff90911660048201526024016100cb565b505050600101610479565b507f7c228c50d45193c25d23628673263aa4070e0bc1d669d0590a878189231c1f8b8484848460405161061b94939291906115bc565b60405180910390a161062d8383610fd3565b50505050565b5f80516020611904833981519152600301546001600160a01b031633146106a4577fc8fcad8db84d3cc18b4c41d551ea0ee66dd599cde068d998e57d5e09332c131f54604051600162bed83560e01b031981523360048201526001600160a01b0390911660248201526044016100cb565b565b6001600160a01b0382166106cf57806040516302b8da0760e21b81526004016100cb9190611157565b7fc8fcad8db84d3cc18b4c41d551ea0ee66dd599cde068d998e57d5e09332c131d54604080516060810190915260218082525f8051602061190483398151915292916107259186919061196e6020830139611095565b5f5b8351811015610848575f848281518110610743576107436114ed565b6020908102919091018101516001600160e01b031981165f908152918690526040909120549091506001600160a01b031615610794578060405163ebbf5d0760e01b81526004016100cb91906116db565b6040805180820182526001600160a01b03808916825261ffff80871660208085019182526001600160e01b031987165f9081528a8252958620945185549251909316600160a01b026001600160b01b0319909216929093169190911717909155600180870180549182018155835291206008820401805460e084901c60046007909416939093026101000a92830263ffffffff90930219169190911790558261083c81611704565b93505050600101610727565b5050505050565b6001600160a01b0382165f9081527fceb371f14680b24778678cd24efa5bf3e4318515dc0f63b3b54b5c95a7bd9e5e60208190526040909120805461089390611724565b1590506108e25760405162461bcd60e51b815260206004820152601860248201527f466163657420616c72656164792072656769737465726564000000000000000060448201526064016100cb565b6001600160a01b0383165f90815260208290526040902061090383826117a0565b50828160010183604051610917919061185b565b908152604051908190036020908101822080546001600160a01b039485166001600160a01b0319918216179091556002850180546001810182555f918252929020909101805493871693909116831790557f2377f1cf306e5c9aef25749e1ab1ad80122613cb1998f0f4af8808250046d9dc90610995908590611876565b60405180910390a2505050565b6001600160a01b0382166109cb578060405163cd98a96f60e01b81526004016100cb9190611157565b5f5f8051602061190483398151915290506109fe8360405180606001604052806025815260200161194960259139611095565b5f5b825181101561062d575f838281518110610a1c57610a1c6114ed565b6020908102919091018101516001600160e01b031981165f908152918590526040909120549091506001600160a01b031680610a6d5781604051637479f93960e01b81526004016100cb91906116db565b856001600160a01b0316816001600160a01b031603610aa15781604051631ac6ce8d60e11b81526004016100cb91906116db565b306001600160a01b03821603610acc5781604051632901806d60e11b81526004016100cb91906116db565b506001600160e01b0319165f90815260208390526040902080546001600160a01b0319166001600160a01b038616179055600101610a00565b6001600160a01b03821615610b385760405163d091bc8160e01b81526001600160a01b03831660048201526024016100cb565b7fc8fcad8db84d3cc18b4c41d551ea0ee66dd599cde068d998e57d5e09332c131d545f80516020611904833981519152905f5b8351811015610848575f848281518110610b8757610b876114ed565b6020908102919091018101516001600160e01b031981165f9081528683526040908190208151808301909252546001600160a01b038116808352600160a01b90910461ffff169382019390935290925090610bf75781604051637a08a22d60e01b81526004016100cb91906116db565b8051306001600160a01b0390911603610c255781604051630df5fd6160e31b81526004016100cb91906116db565b83610c2f81611888565b94505083816020015161ffff1614610d09575f856001018581548110610c5757610c576114ed565b905f5260205f2090600891828204019190066004029054906101000a900460e01b90508086600101836020015161ffff1681548110610c9857610c986114ed565b5f91825260208083206008830401805463ffffffff60079094166004026101000a938402191660e09590951c92909202939093179055838201516001600160e01b03199390931681529087905260409020805461ffff60a01b1916600160a01b61ffff909316929092029190911790555b84600101805480610d1c57610d1c61189d565b5f828152602080822060085f1990940193840401805463ffffffff600460078716026101000a0219169055919092556001600160e01b0319909316815291859052506040902080546001600160b01b0319169055600101610b6b565b6001600160a01b0381165f9081527fceb371f14680b24778678cd24efa5bf3e4318515dc0f63b3b54b5c95a7bd9e5e6020819052604082208054919291610dbe90611724565b80601f0160208091040260200160405190810160405280929190818152602001828054610dea90611724565b8015610e355780601f10610e0c57610100808354040283529160200191610e35565b820191905f5260205f20905b815481529060010190602001808311610e1857829003601f168201915b505050506001600160a01b0385165f908152602085905260408120929350610e5e9291506110c9565b8160010181604051610e70919061185b565b90815260405190819003602001902080546001600160a01b031916905560028201545f5b81811015610f8b57846001600160a01b0316846002018281548110610ebb57610ebb6114ed565b5f918252602090912001546001600160a01b031603610f835760028401610ee36001846118b1565b81548110610ef357610ef36114ed565b5f918252602090912001546002850180546001600160a01b039092169183908110610f2057610f206114ed565b905f5260205f20015f6101000a8154816001600160a01b0302191690836001600160a01b0316021790555083600201805480610f5e57610f5e61189d565b5f8281526020902081015f1990810180546001600160a01b0319169055019055610f8b565b600101610e94565b50836001600160a01b03167fdd25530efe1115f0ecc2b712c0ea01f24355cb704f06b16cf262a22b60e514fe83604051610fc59190611876565b60405180910390a250505050565b6001600160a01b038216610fe5575050565b6110078260405180606001604052806025815260200161192460259139611095565b5f80836001600160a01b031683604051611021919061185b565b5f60405180830381855af49150503d805f8114611059576040519150601f19603f3d011682016040523d82523d5f602084013e61105e565b606091505b50915091508161062d578051156110785780518060208301fd5b838360405163192105d760e01b81526004016100cb9291906118c4565b813b5f8190036110bc57828260405163919834b960e01b81526004016100cb9291906118c4565b505050565b6106a46118ef565b5080546110d590611724565b5f825580601f106110e4575050565b601f0160209004905f5260205f20908101906111009190611103565b50565b5b80821115611117575f8155600101611104565b5090565b80356001600160e01b031981168114611132575f80fd5b919050565b5f60208284031215611147575f80fd5b6111508261111b565b9392505050565b602080825282518282018190525f918401906040840190835b818110156111985783516001600160e01b031916835260209384019390920191600101611170565b509095945050505050565b634e487b7160e01b5f52604160045260245ffd5b6040516060810167ffffffffffffffff811182821017156111da576111da6111a3565b60405290565b604051601f8201601f1916810167ffffffffffffffff81118282101715611209576112096111a3565b604052919050565b5f67ffffffffffffffff82111561122a5761122a6111a3565b5060051b60200190565b80356001600160a01b0381168114611132575f80fd5b5f82601f830112611259575f80fd5b813561126c61126782611211565b6111e0565b8082825260208201915060208360051b86010192508583111561128d575f80fd5b602085015b8381101561132d57803567ffffffffffffffff8111156112b0575f80fd5b8601603f810188136112c0575f80fd5b602081013567ffffffffffffffff8111156112dd576112dd6111a3565b6112f0601f8201601f19166020016111e0565b8181526040838301018a1015611304575f80fd5b816040840160208301375f60208383010152808652505050602083019250602081019050611292565b5095945050505050565b5f8060408385031215611348575f80fd5b823567ffffffffffffffff81111561135e575f80fd5b8301601f8101851361136e575f80fd5b803561137c61126782611211565b8082825260208201915060208360051b85010192508783111561139d575f80fd5b602084015b8381101561149f57803567ffffffffffffffff8111156113c0575f80fd5b85016060818b03601f190112156113d5575f80fd5b6113dd6111b7565b6113e960208301611234565b81526040820135600381106113fc575f80fd5b6020820152606082013567ffffffffffffffff81111561141a575f80fd5b6020818401019250508a601f830112611431575f80fd5b813561143f61126782611211565b8082825260208201915060208360051b86010192508d831115611460575f80fd5b6020850194505b82851015611489576114788561111b565b825260209485019490910190611467565b60408401525050845250602092830192016113a2565b509450505050602083013567ffffffffffffffff8111156114be575f80fd5b6114ca8582860161124a565b9150509250929050565b5f602082840312156114e4575f80fd5b61115082611234565b634e487b7160e01b5f52603260045260245ffd5b634e487b7160e01b5f52602160045260245ffd5b5f5b8381101561152f578181015183820152602001611517565b50505f910152565b5f815180845261154e816020860160208601611515565b601f01601f19169290920160200192915050565b5f82825180855260208501945060208160051b830101602085015f5b838110156115b057601f1985840301885261159a838351611537565b602098890198909350919091019060010161157e565b50909695505050505050565b5f608082016080835280875180835260a08501915060a08160051b8601019250602089015f5b8281101561169757868503609f19018452815180516001600160a01b03168652602081015160608701906003811061162857634e487b7160e01b5f52602160045260245ffd5b8060208901525060408201519150606060408801528082518083526080890191506020840193505f92505b8083101561167f5783516001600160e01b03191682526020938401936001939093019290910190611653565b509650505060209384019391909101906001016115e2565b5050506001600160a01b03871660208501525082810360408401526116bc8186611537565b905082810360608401526116d08185611562565b979650505050505050565b6001600160e01b031991909116815260200190565b634e487b7160e01b5f52601160045260245ffd5b5f61ffff821661ffff810361171b5761171b6116f0565b60010192915050565b600181811c9082168061173857607f821691505b60208210810361175657634e487b7160e01b5f52602260045260245ffd5b50919050565b601f8211156110bc57805f5260205f20601f840160051c810160208510156117815750805b601f840160051c820191505b81811015610848575f815560010161178d565b815167ffffffffffffffff8111156117ba576117ba6111a3565b6117ce816117c88454611724565b8461175c565b6020601f821160018114611800575f83156117e95750848201515b5f19600385901b1c1916600184901b178455610848565b5f84815260208120601f198516915b8281101561182f578785015182556020948501946001909201910161180f565b508482101561184c57868401515f19600387901b60f8161c191681555b50505050600190811b01905550565b5f825161186c818460208701611515565b9190910192915050565b602081525f6111506020830184611537565b5f81611896576118966116f0565b505f190190565b634e487b7160e01b5f52603160045260245ffd5b818103818111156101ef576101ef6116f0565b6001600160a01b03831681526040602082018190525f906118e790830184611537565b949350505050565b634e487b7160e01b5f52605160045260245ffdfec8fcad8db84d3cc18b4c41d551ea0ee66dd599cde068d998e57d5e09332c131c4c69624469616d6f6e643a205f696e6974206164647265737320686173206e6f20636f64654c69624469616d6f6e643a205265706c61636520666163657420686173206e6f20636f64654c69624469616d6f6e643a2041646420666163657420686173206e6f20636f6465a26469706673582212203e389f4f599fd77e758eb00f4759050f5c49ebd6d1c6236a4efe2a7320327e5864736f6c634300081a0033c8fcad8db84d3cc18b4c41d551ea0ee66dd599cde068d998e57d5e09332c131c4c69624469616d6f6e643a205f696e6974206164647265737320686173206e6f20636f64654c69624469616d6f6e643a205265706c61636520666163657420686173206e6f20636f6465436f6e7374727563746f723a20696e6974616c466175636574732e6c656e677468203dceb371f14680b24778678cd24efa5bf3e4318515dc0f63b3b54b5c95a7bd9e5e4c69624469616d6f6e643a2041646420666163657420686173206e6f20636f6465c8fcad8db84d3cc18b4c41d551ea0ee66dd599cde068d998e57d5e09332c131d",
  "linkReferences": {},
  "deployedLinkReferences": {}
}