{
  "_format": "hh-sol-artifact-1",
  "contractName": "DiamondCutFacet",
  "sourceName": "contracts/facets/DiamondCutFacet.sol",
  "abi": [
    {
      "inputs": [
        {
          "internalType": "bytes4",
          "name": "_selector",
          "type": "bytes4"
        }
      ],
      "name": "CannotAddFunctionToDiamondThatAlreadyExists",
      "type": "error"
    },
    {
      "inputs": [
        {
          "internalType": "bytes4[]",
          "name": "_selectors",
          "type": "bytes4[]"
        }
      ],
      "name": "CannotAddSelectorsToZeroAddress",
      "type": "error"
    },
    {
      "inputs": [
        {
          "internalType": "bytes4",
          "name": "_selector",
          "type": "bytes4"
        }
      ],
      "name": "CannotRemoveFunctionThatDoesNotExist",
      "type": "error"
    },
    {
      "inputs": [
        {
          "internalType": "bytes4",
          "name": "_selector",
          "type": "bytes4"
        }
      ],
      "name": "CannotRemoveImmutableFunction",
      "type": "error"
    },
    {
      "inputs": [
        {
          "internalType": "bytes4",
          "name": "_selector",
          "type": "bytes4"
        }
      ],
      "name": "CannotReplaceFunctionThatDoesNotExists",
      "type": "error"
    },
    {
      "inputs": [
        {
          "internalType": "bytes4",
          "name": "_selector",
          "type": "bytes4"
        }
      ],
      "name": "CannotReplaceFunctionWithTheSameFunctionFromTheSameFacet",
      "type": "error"
    },
    {
      "inputs": [
        {
          "internalType": "bytes4[]",
          "name": "_selectors",
          "type": "bytes4[]"
        }
      ],
      "name": "CannotReplaceFunctionsFromFacetWithZeroAddress",
      "type": "error"
    },
    {
      "inputs": [
        {
          "internalType": "bytes4",
          "name": "_selector",
          "type": "bytes4"
        }
      ],
      "name": "CannotReplaceImmutableFunction",
      "type": "error"
    },
    {
      "inputs": [
        {
          "internalType": "uint8",
          "name": "_action",
          "type": "uint8"
        }
      ],
      "name": "IncorrectFacetCutAction",
      "type": "error"
    },
    {
      "inputs": [
        {
          "internalType": "address",
          "name": "_initializationContractAddress",
          "type": "address"
        },
        {
          "internalType": "bytes",
          "name": "_calldata",
          "type": "bytes"
        }
      ],
      "name": "InitializationFunctionReverted",
      "type": "error"
    },
    {
      "inputs": [
        {
          "internalType": "address",
          "name": "_contractAddress",
          "type": "address"
        },
        {
          "internalType": "string",
          "name": "_message",
          "type": "string"
        }
      ],
      "name": "NoBytecodeAtAddress",
      "type": "error"
    },
    {
      "inputs": [
        {
          "internalType": "address",
          "name": "_facetAddress",
          "type": "address"
        }
      ],
      "name": "NoSelectorsProvidedForFacetForCut",
      "type": "error"
    },
    {
      "inputs": [
        {
          "internalType": "address",
          "name": "_user",
          "type": "address"
        },
        {
          "internalType": "address",
          "name": "_contractOwner",
          "type": "address"
        }
      ],
      "name": "NotContractOwner",
      "type": "error"
    },
    {
      "inputs": [
        {
          "internalType": "address",
          "name": "_facetAddress",
          "type": "address"
        }
      ],
      "name": "RemoveFacetAddressMustBeZeroAddress",
      "type": "error"
    },
    {
      "anonymous": false,
      "inputs": [
        {
          "components": [
            {
              "internalType": "address",
              "name": "facetAddress",
              "type": "address"
            },
            {
              "internalType": "enum IDiamond.FacetCutAction",
              "name": "action",
              "type": "uint8"
            },
            {
              "internalType": "bytes4[]",
              "name": "functionSelectors",
              "type": "bytes4[]"
            }
          ],
          "indexed": false,
          "internalType": "struct IDiamond.FacetCut[]",
          "name": "_diamondCut",
          "type": "tuple[]"
        },
        {
          "indexed": false,
          "internalType": "address",
          "name": "_init",
          "type": "address"
        },
        {
          "indexed": false,
          "internalType": "bytes",
          "name": "_calldata",
          "type": "bytes"
        },
        {
          "indexed": false,
          "internalType": "string",
          "name": "name",
          "type": "string"
        }
      ],
      "name": "DiamondCut",
      "type": "event"
    },
    {
      "anonymous": false,
      "inputs": [
        {
          "components": [
            {
              "internalType": "address",
              "name": "facetAddress",
              "type": "address"
            },
            {
              "internalType": "enum IDiamond.FacetCutAction",
              "name": "action",
              "type": "uint8"
            },
            {
              "internalType": "bytes4[]",
              "name": "functionSelectors",
              "type": "bytes4[]"
            }
          ],
          "indexed": false,
          "internalType": "struct IDiamond.FacetCut[]",
          "name": "_diamondCut",
          "type": "tuple[]"
        },
        {
          "indexed": false,
          "internalType": "address",
          "name": "_init",
          "type": "address"
        },
        {
          "indexed": false,
          "internalType": "bytes",
          "name": "_calldata",
          "type": "bytes"
        }
      ],
      "name": "DiamondCut",
      "type": "event"
    },
    {
      "inputs": [
        {
          "components": [
            {
              "internalType": "address",
              "name": "facetAddress",
              "type": "address"
            },
            {
              "internalType": "enum IDiamond.FacetCutAction",
              "name": "action",
              "type": "uint8"
            },
            {
              "internalType": "bytes4[]",
              "name": "functionSelectors",
              "type": "bytes4[]"
            }
          ],
          "internalType": "struct IDiamond.FacetCut[]",
          "name": "_diamondCut",
          "type": "tuple[]"
        },
        {
          "internalType": "address",
          "name": "_init",
          "type": "address"
        },
        {
          "internalType": "bytes",
          "name": "_calldata",
          "type": "bytes"
        }
      ],
      "name": "diamondCut",
      "outputs": [],
      "stateMutability": "nonpayable",
      "type": "function"
    },
    {
      "inputs": [
        {
          "components": [
            {
              "internalType": "address",
              "name": "facetAddress",
              "type": "address"
            },
            {
              "internalType": "enum IDiamond.FacetCutAction",
              "name": "action",
              "type": "uint8"
            },
            {
              "internalType": "bytes4[]",
              "name": "functionSelectors",
              "type": "bytes4[]"
            }
          ],
          "internalType": "struct IDiamond.FacetCut[]",
          "name": "_diamondCut",
          "type": "tuple[]"
        },
        {
          "internalType": "address",
          "name": "_init",
          "type": "address"
        },
        {
          "internalType": "bytes",
          "name": "_calldata",
          "type": "bytes"
        },
        {
          "internalType": "string[]",
          "name": "facetNames",
          "type": "string[]"
        }
      ],
      "name": "diamondCutWithName",
      "outputs": [],
      "stateMutability": "nonpayable",
      "type": "function"
    }
  ],
  "bytecode": "0x6080604052348015600e575f80fd5b5061135b8061001c5f395ff3fe608060405234801561000f575f80fd5b5060043610610034575f3560e01c80631f931c1c1461003857806382b24cab1461004d575b5f80fd5b61004b610046366004610baa565b610060565b005b61004b61005b366004610c29565b6100b8565b610068610280565b6100b16100758587610d64565b8484848080601f0160208091040260200160405190810160405280939291908181526020018383808284375f920191909152506102f392505050565b5050505050565b8581146100f75760405162461bcd60e51b815260206004820152600860248201526709ad2e6dac2e8c6d60c31b60448201526064015b60405180910390fd5b5f5b8681101561022d575f88888381811061011457610114610e9d565b90506020028101906101269190610eb1565b610134906020810190610ecf565b90505f84848481811061014957610149610e9d565b905060200281019061015b9190610eef565b8080601f0160208091040260200160405190810160405280939291908181526020018383808284375f92018290525093945061019a9250610480915050565b6001600160a01b0384165f9081526020829052604090209091506101be8382610fad565b508281600101836040516101d29190611089565b9081526040516020918190038201902080546001600160a01b03199081166001600160a01b03948516179091556002939093018054600181810183555f928352929091200180549093169490911693909317905550016100f9565b5061027761023b8789610d64565b8686868080601f0160208091040260200160405190810160405280939291908181526020018383808284375f920191909152506102f392505050565b50505050505050565b5f8051602061129b833981519152600301546001600160a01b031633146102f1577fc8fcad8db84d3cc18b4c41d551ea0ee66dd599cde068d998e57d5e09332c131f54604051600162bed83560e01b031981523360048201526001600160a01b0390911660248201526044016100ee565b565b5f5b8351811015610435575f84828151811061031157610311610e9d565b60200260200101516020015190505f85838151811061033257610332610e9d565b60200260200101515f015190505f86848151811061035257610352610e9d565b602002602001015160400151905080515f0361038c5760405163e767f91f60e01b81526001600160a01b03831660048201526024016100ee565b5f83600281111561039f5761039f61109a565b036103b3576103ae82826104a4565b61042a565b60018360028111156103c7576103c761109a565b036103d6576103ae8282610646565b60028360028111156103ea576103ea61109a565b036103f9576103ae82826107af565b82600281111561040b5761040b61109a565b604051633ff4d20f60e11b815260ff90911660048201526024016100ee565b5050506001016102f5565b507f8faa70878671ccd212d20771b795c50af8fd3ff6cf27f4bde57e5d4de0aeb6738383836040516104699392919061111d565b60405180910390a161047b8282610a22565b505050565b7fceb371f14680b24778678cd24efa5bf3e4318515dc0f63b3b54b5c95a7bd9e5e90565b6001600160a01b0382166104cd57806040516302b8da0760e21b81526004016100ee91906111eb565b7fc8fcad8db84d3cc18b4c41d551ea0ee66dd599cde068d998e57d5e09332c131d54604080516060810190915260218082525f8051602061129b8339815191529291610523918691906113056020830139610ae4565b5f5b83518110156100b1575f84828151811061054157610541610e9d565b6020908102919091018101516001600160e01b031981165f908152918690526040909120549091506001600160a01b031615610592578060405163ebbf5d0760e01b81526004016100ee91906111fd565b6040805180820182526001600160a01b03808916825261ffff80871660208085019182526001600160e01b031987165f9081528a8252958620945185549251909316600160a01b026001600160b01b0319909216929093169190911717909155600180870180549182018155835291206008820401805460e084901c60046007909416939093026101000a92830263ffffffff90930219169190911790558261063a81611226565b93505050600101610525565b6001600160a01b03821661066f578060405163cd98a96f60e01b81526004016100ee91906111eb565b5f5f8051602061129b83398151915290506106a2836040518060600160405280602581526020016112e060259139610ae4565b5f5b82518110156107a9575f8382815181106106c0576106c0610e9d565b6020908102919091018101516001600160e01b031981165f908152918590526040909120549091506001600160a01b0316806107115781604051637479f93960e01b81526004016100ee91906111fd565b856001600160a01b0316816001600160a01b0316036107455781604051631ac6ce8d60e11b81526004016100ee91906111fd565b306001600160a01b038216036107705781604051632901806d60e11b81526004016100ee91906111fd565b506001600160e01b0319165f90815260208390526040902080546001600160a01b0319166001600160a01b0386161790556001016106a4565b50505050565b6001600160a01b038216156107e25760405163d091bc8160e01b81526001600160a01b03831660048201526024016100ee565b7fc8fcad8db84d3cc18b4c41d551ea0ee66dd599cde068d998e57d5e09332c131d545f8051602061129b833981519152905f5b83518110156100b1575f84828151811061083157610831610e9d565b6020908102919091018101516001600160e01b031981165f9081528683526040908190208151808301909252546001600160a01b038116808352600160a01b90910461ffff1693820193909352909250906108a15781604051637a08a22d60e01b81526004016100ee91906111fd565b8051306001600160a01b03909116036108cf5781604051630df5fd6160e31b81526004016100ee91906111fd565b836108d981611246565b94505083816020015161ffff16146109b3575f85600101858154811061090157610901610e9d565b905f5260205f2090600891828204019190066004029054906101000a900460e01b90508086600101836020015161ffff168154811061094257610942610e9d565b5f91825260208083206008830401805463ffffffff60079094166004026101000a938402191660e09590951c92909202939093179055838201516001600160e01b03199390931681529087905260409020805461ffff60a01b1916600160a01b61ffff909316929092029190911790555b846001018054806109c6576109c661125b565b5f828152602080822060085f1990940193840401805463ffffffff600460078716026101000a0219169055919092556001600160e01b0319909316815291859052506040902080546001600160b01b0319169055600101610815565b6001600160a01b038216610a34575050565b610a56826040518060600160405280602581526020016112bb60259139610ae4565b5f80836001600160a01b031683604051610a709190611089565b5f60405180830381855af49150503d805f8114610aa8576040519150601f19603f3d011682016040523d82523d5f602084013e610aad565b606091505b5091509150816107a957805115610ac75780518060208301fd5b838360405163192105d760e01b81526004016100ee92919061126f565b813b5f81900361047b57828260405163919834b960e01b81526004016100ee92919061126f565b5f8083601f840112610b1b575f80fd5b5081356001600160401b03811115610b31575f80fd5b6020830191508360208260051b8501011115610b4b575f80fd5b9250929050565b80356001600160a01b0381168114610b68575f80fd5b919050565b5f8083601f840112610b7d575f80fd5b5081356001600160401b03811115610b93575f80fd5b602083019150836020828501011115610b4b575f80fd5b5f805f805f60608688031215610bbe575f80fd5b85356001600160401b03811115610bd3575f80fd5b610bdf88828901610b0b565b9096509450610bf2905060208701610b52565b925060408601356001600160401b03811115610c0c575f80fd5b610c1888828901610b6d565b969995985093965092949392505050565b5f805f805f805f6080888a031215610c3f575f80fd5b87356001600160401b03811115610c54575f80fd5b610c608a828b01610b0b565b9098509650610c73905060208901610b52565b945060408801356001600160401b03811115610c8d575f80fd5b610c998a828b01610b6d565b90955093505060608801356001600160401b03811115610cb7575f80fd5b610cc38a828b01610b0b565b989b979a50959850939692959293505050565b634e487b7160e01b5f52604160045260245ffd5b604051606081016001600160401b0381118282101715610d0c57610d0c610cd6565b60405290565b604051601f8201601f191681016001600160401b0381118282101715610d3a57610d3a610cd6565b604052919050565b5f6001600160401b03821115610d5a57610d5a610cd6565b5060051b60200190565b5f610d76610d7184610d42565b610d12565b8381526020810190600585901b840136811115610d91575f80fd5b845b81811015610e925780356001600160401b03811115610db0575f80fd5b86016060368290031215610dc2575f80fd5b610dca610cea565b610dd382610b52565b8152602082013560038110610de6575f80fd5b602082015260408201356001600160401b03811115610e03575f80fd5b919091019036601f830112610e16575f80fd5b8135610e24610d7182610d42565b8082825260208201915060208360051b860101925036831115610e45575f80fd5b6020850194505b82851015610e7c5784356001600160e01b031981168114610e6b575f80fd5b825260209485019490910190610e4c565b6040840152505085525060209384019301610d93565b509095945050505050565b634e487b7160e01b5f52603260045260245ffd5b5f8235605e19833603018112610ec5575f80fd5b9190910192915050565b5f60208284031215610edf575f80fd5b610ee882610b52565b9392505050565b5f808335601e19843603018112610f04575f80fd5b8301803591506001600160401b03821115610f1d575f80fd5b602001915036819003821315610b4b575f80fd5b600181811c90821680610f4557607f821691505b602082108103610f6357634e487b7160e01b5f52602260045260245ffd5b50919050565b601f82111561047b57805f5260205f20601f840160051c81016020851015610f8e5750805b601f840160051c820191505b818110156100b1575f8155600101610f9a565b81516001600160401b03811115610fc657610fc6610cd6565b610fda81610fd48454610f31565b84610f69565b6020601f82116001811461100c575f8315610ff55750848201515b5f19600385901b1c1916600184901b1784556100b1565b5f84815260208120601f198516915b8281101561103b578785015182556020948501946001909201910161101b565b508482101561105857868401515f19600387901b60f8161c191681555b50505050600190811b01905550565b5f5b83811015611081578181015183820152602001611069565b50505f910152565b5f8251610ec5818460208701611067565b634e487b7160e01b5f52602160045260245ffd5b5f8151808452602084019350602083015f5b828110156110e85781516001600160e01b0319168652602095860195909101906001016110c0565b5093949350505050565b5f8151808452611109816020860160208601611067565b601f01601f19169290920160200192915050565b5f606082016060835280865180835260808501915060808160051b8601019250602088015f5b828110156111bc57868503607f19018452815180516001600160a01b0316865260208101516003811061118457634e487b7160e01b5f52602160045260245ffd5b8060208801525060408101519050606060408701526111a660608701826110ae565b9550506020938401939190910190600101611143565b5050506001600160a01b03861660208501525082810360408401526111e181856110f2565b9695505050505050565b602081525f610ee860208301846110ae565b6001600160e01b031991909116815260200190565b634e487b7160e01b5f52601160045260245ffd5b5f61ffff821661ffff810361123d5761123d611212565b60010192915050565b5f8161125457611254611212565b505f190190565b634e487b7160e01b5f52603160045260245ffd5b6001600160a01b03831681526040602082018190525f90611292908301846110f2565b94935050505056fec8fcad8db84d3cc18b4c41d551ea0ee66dd599cde068d998e57d5e09332c131c4c69624469616d6f6e643a205f696e6974206164647265737320686173206e6f20636f64654c69624469616d6f6e643a205265706c61636520666163657420686173206e6f20636f64654c69624469616d6f6e643a2041646420666163657420686173206e6f20636f6465a2646970667358221220d3e29cf4ba454320fed0077994c7496be91da18ff673e290e6f27d45c14775d164736f6c634300081a0033",
  "linkReferences": {},
  "deployedLinkReferences": {}
}