{
  "_format": "hh-sol-artifact-1",
  "contractName": "DiamondLoupeFacet",
  "sourceName": "contracts/facets/DiamondLoupeFacet.sol",
  "abi": [
    {
      "inputs": [
        {
          "internalType": "bytes4",
          "name": "_functionSelector",
          "type": "bytes4"
        }
      ],
      "name": "facetAddress",
      "outputs": [
        {
          "internalType": "address",
          "name": "facetAddress_",
          "type": "address"
        }
      ],
      "stateMutability": "view",
      "type": "function"
    },
    {
      "inputs": [],
      "name": "facetAddresses",
      "outputs": [
        {
          "internalType": "address[]",
          "name": "facetAddresses_",
          "type": "address[]"
        }
      ],
      "stateMutability": "view",
      "type": "function"
    },
    {
      "inputs": [
        {
          "internalType": "address",
          "name": "_facet",
          "type": "address"
        }
      ],
      "name": "facetFunctionSelectors",
      "outputs": [
        {
          "internalType": "bytes4[]",
          "name": "_facetFunctionSelectors",
          "type": "bytes4[]"
        }
      ],
      "stateMutability": "view",
      "type": "function"
    },
    {
      "inputs": [],
      "name": "facets",
      "outputs": [
        {
          "components": [
            {
              "internalType": "address",
              "name": "facetAddress",
              "type": "address"
            },
            {
              "internalType": "bytes4[]",
              "name": "functionSelectors",
              "type": "bytes4[]"
            }
          ],
          "internalType": "struct IDiamondLoupe.Facet[]",
          "name": "facets_",
          "type": "tuple[]"
        }
      ],
      "stateMutability": "view",
      "type": "function"
    },
    {
      "inputs": [
        {
          "internalType": "bytes4",
          "name": "_interfaceId",
          "type": "bytes4"
        }
      ],
      "name": "supportsInterface",
      "outputs": [
        {
          "internalType": "bool",
          "name": "",
          "type": "bool"
        }
      ],
      "stateMutability": "view",
      "type": "function"
    }
  ],
  "bytecode": "0x6080604052348015600e575f80fd5b50610a208061001c5f395ff3fe608060405234801561000f575f80fd5b5060043610610055575f3560e01c806301ffc9a71461005957806352ef6b2c146100b95780637a0ed627146100ce578063adfca15e146100e3578063cdffacc614610103575b5f80fd5b6100a46100673660046107de565b6001600160e01b0319165f9081527fc8fcad8db84d3cc18b4c41d551ea0ee66dd599cde068d998e57d5e09332c131e602052604090205460ff1690565b60405190151581526020015b60405180910390f35b6100c1610159565b6040516100b0919061080c565b6100d66102e2565b6040516100b0919061089b565b6100f66100f136600461091e565b6106a5565b6040516100b09190610944565b6101416101113660046107de565b6001600160e01b0319165f9081525f805160206109cb83398151915260205260409020546001600160a01b031690565b6040516001600160a01b0390911681526020016100b0565b7fc8fcad8db84d3cc18b4c41d551ea0ee66dd599cde068d998e57d5e09332c131d546060905f805160206109cb833981519152908067ffffffffffffffff8111156101a6576101a6610956565b6040519080825280602002602001820160405280156101cf578160200160208202803683370190505b5092505f805b828110156102d8575f8460010182815481106101f3576101f361096a565b5f918252602080832060088304015460079092166004026101000a90910460e01b6001600160e01b0319811683529087905260408220549092506001600160a01b031690805b85811015610284578881815181106102535761025361096a565b60200260200101516001600160a01b0316836001600160a01b03160361027c5760019150610284565b600101610239565b50801561029457506102d0915050565b818886815181106102a7576102a761096a565b6001600160a01b0390921660209283029190910190910152846102c981610992565b9550505050505b6001016101d5565b5080845250505090565b7fc8fcad8db84d3cc18b4c41d551ea0ee66dd599cde068d998e57d5e09332c131d546060905f805160206109cb833981519152908067ffffffffffffffff81111561032f5761032f610956565b60405190808252806020026020018201604052801561037457816020015b604080518082019091525f81526060602082015281526020019060019003908161034d5790505b5092505f8167ffffffffffffffff81111561039157610391610956565b6040519080825280602002602001820160405280156103ba578160200160208202803683370190505b5090505f805b83811015610640575f8560010182815481106103de576103de61096a565b5f918252602080832060088304015460079092166004026101000a90910460e01b6001600160e01b0319811683529088905260408220549092506001600160a01b031690805b8581101561050f57826001600160a01b03168a82815181106104485761044861096a565b60200260200101515f01516001600160a01b03160361050757838a82815181106104745761047461096a565b6020026020010151602001518883815181106104925761049261096a565b602002602001015161ffff16815181106104ae576104ae61096a565b60200260200101906001600160e01b03191690816001600160e01b031916815250508681815181106104e2576104e261096a565b6020026020010180518091906104f7906109aa565b61ffff169052506001915061050f565b600101610424565b50801561051f5750610638915050565b818986815181106105325761053261096a565b60209081029190910101516001600160a01b0390911690528667ffffffffffffffff81111561056357610563610956565b60405190808252806020026020018201604052801561058c578160200160208202803683370190505b5089868151811061059f5761059f61096a565b602002602001015160200181905250828986815181106105c1576105c161096a565b6020026020010151602001515f815181106105de576105de61096a565b60200260200101906001600160e01b03191690816001600160e01b0319168152505060018686815181106106145761061461096a565b61ffff909216602092830291909101909101528461063181610992565b9550505050505b6001016103c0565b505f5b8181101561069a575f83828151811061065e5761065e61096a565b602002602001015161ffff1690505f87838151811061067f5761067f61096a565b60209081029190910181015101519190915250600101610643565b508085525050505090565b7fc8fcad8db84d3cc18b4c41d551ea0ee66dd599cde068d998e57d5e09332c131d546060905f805160206109cb833981519152905f8167ffffffffffffffff8111156106f3576106f3610956565b60405190808252806020026020018201604052801561071c578160200160208202803683370190505b5093505f5b828110156107d3575f84600101828154811061073f5761073f61096a565b5f918252602080832060088304015460079092166004026101000a90910460e01b6001600160e01b031981168352908790526040909120549091506001600160a01b039081169088168190036107c957818785815181106107a2576107a261096a565b6001600160e01b031990921660209283029190910190910152836107c581610992565b9450505b5050600101610721565b508352509092915050565b5f602082840312156107ee575f80fd5b81356001600160e01b031981168114610805575f80fd5b9392505050565b602080825282518282018190525f918401906040840190835b8181101561084c5783516001600160a01b0316835260209384019390920191600101610825565b509095945050505050565b5f8151808452602084019350602083015f5b828110156108915781516001600160e01b031916865260209586019590910190600101610869565b5093949350505050565b5f602082016020835280845180835260408501915060408160051b8601019250602086015f5b8281101561091257868503603f19018452815180516001600160a01b031686526020908101516040918701829052906108fc90870182610857565b95505060209384019391909101906001016108c1565b50929695505050505050565b5f6020828403121561092e575f80fd5b81356001600160a01b0381168114610805575f80fd5b602081525f6108056020830184610857565b634e487b7160e01b5f52604160045260245ffd5b634e487b7160e01b5f52603260045260245ffd5b634e487b7160e01b5f52601160045260245ffd5b5f600182016109a3576109a361097e565b5060010190565b5f61ffff821661ffff81036109c1576109c161097e565b6001019291505056fec8fcad8db84d3cc18b4c41d551ea0ee66dd599cde068d998e57d5e09332c131ca2646970667358221220e4f6bddf109619dda4105c6760a2c058cf20920301619044b8c27db19b2ac1f364736f6c634300081a0033",
  "linkReferences": {},
  "deployedLinkReferences": {}
}