{
  "_format": "hh-sol-artifact-1",
  "contractName": "FacetRegistryFacet",
  "sourceName": "contracts/facets/FacetRegistryFacet.sol",
  "abi": [
    {
      "anonymous": false,
      "inputs": [
        {
          "indexed": true,
          "internalType": "address",
          "name": "facet",
          "type": "address"
        },
        {
          "indexed": false,
          "internalType": "string",
          "name": "name",
          "type": "string"
        }
      ],
      "name": "FacetRegistered",
      "type": "event"
    },
    {
      "anonymous": false,
      "inputs": [
        {
          "indexed": true,
          "internalType": "address",
          "name": "facet",
          "type": "address"
        },
        {
          "indexed": false,
          "internalType": "string",
          "name": "name",
          "type": "string"
        }
      ],
      "name": "FacetRemoved",
      "type": "event"
    },
    {
      "inputs": [],
      "name": "getAllFacets",
      "outputs": [
        {
          "internalType": "address[]",
          "name": "",
          "type": "address[]"
        },
        {
          "internalType": "string[]",
          "name": "",
          "type": "string[]"
        }
      ],
      "stateMutability": "view",
      "type": "function"
    },
    {
      "inputs": [
        {
          "internalType": "address",
          "name": "facet",
          "type": "address"
        }
      ],
      "name": "getFacetName",
      "outputs": [
        {
          "internalType": "string",
          "name": "",
          "type": "string"
        }
      ],
      "stateMutability": "view",
      "type": "function"
    }
  ],
  "bytecode": "0x6080604052348015600e575f80fd5b506105118061001c5f395ff3fe608060405234801561000f575f80fd5b5060043610610034575f3560e01c80633ccf3d8b14610038578063abb366ea14610057575b5f80fd5b610040610077565b60405161004e929190610393565b60405180910390f35b61006a61006536600461043c565b610288565b60405161004e9190610469565b7fceb371f14680b24778678cd24efa5bf3e4318515dc0f63b3b54b5c95a7bd9e605460609081907fceb371f14680b24778678cd24efa5bf3e4318515dc0f63b3b54b5c95a7bd9e5e905f8167ffffffffffffffff8111156100da576100da61047b565b604051908082528060200260200182016040528015610103578160200160208202803683370190505b5090505f8267ffffffffffffffff8111156101205761012061047b565b60405190808252806020026020018201604052801561015357816020015b606081526020019060019003908161013e5790505b5090505f5b8381101561027c575f8560020182815481106101765761017661048f565b905f5260205f20015f9054906101000a90046001600160a01b03169050808483815181106101a6576101a661048f565b6001600160a01b039283166020918202929092018101919091529082165f908152908790526040902080546101da906104a3565b80601f0160208091040260200160405190810160405280929190818152602001828054610206906104a3565b80156102515780601f1061022857610100808354040283529160200191610251565b820191905f5260205f20905b81548152906001019060200180831161023457829003601f168201915b50505050508383815181106102685761026861048f565b602090810291909101015250600101610158565b50909590945092505050565b6001600160a01b0381165f9081527fceb371f14680b24778678cd24efa5bf3e4318515dc0f63b3b54b5c95a7bd9e5e602052604090208054606091906102cd906104a3565b80601f01602080910402602001604051908101604052809291908181526020018280546102f9906104a3565b80156103445780601f1061031b57610100808354040283529160200191610344565b820191905f5260205f20905b81548152906001019060200180831161032757829003601f168201915b50505050509050919050565b5f81518084525f5b8181101561037457602081850181015186830182015201610358565b505f602082860101526020601f19601f83011685010191505092915050565b604080825283519082018190525f9060208501906060840190835b818110156103d55783516001600160a01b03168352602093840193909201916001016103ae565b50508381036020850152809150845180825260208201925060208160051b830101602087015f5b8381101561042e57601f19858403018652610418838351610350565b60209687019690935091909101906001016103fc565b509098975050505050505050565b5f6020828403121561044c575f80fd5b81356001600160a01b0381168114610462575f80fd5b9392505050565b602081525f6104626020830184610350565b634e487b7160e01b5f52604160045260245ffd5b634e487b7160e01b5f52603260045260245ffd5b600181811c908216806104b757607f821691505b6020821081036104d557634e487b7160e01b5f52602260045260245ffd5b5091905056fea2646970667358221220f1118fa81a819db4b37c247c594995520a46c080f81773b1fbcc529a09f3555a64736f6c634300081a0033",
  "linkReferences": {},
  "deployedLinkReferences": {}
}