{
  "_format": "hh-sol-artifact-1",
  "contractName": "GameInfoFacet",
  "sourceName": "contracts/facets/GameInfoFacet.sol",
  "abi": [
    {
      "inputs": [
        {
          "internalType": "address",
          "name": "_user",
          "type": "address"
        },
        {
          "internalType": "address",
          "name": "_contractOwner",
          "type": "address"
        }
      ],
      "name": "NotContractOwner",
      "type": "error"
    },
    {
      "anonymous": false,
      "inputs": [
        {
          "indexed": true,
          "internalType": "address",
          "name": "user",
          "type": "address"
        },
        {
          "indexed": false,
          "internalType": "bool",
          "name": "isAuthorized",
          "type": "bool"
        }
      ],
      "name": "AuthorizedUserUpdated",
      "type": "event"
    },
    {
      "anonymous": false,
      "inputs": [
        {
          "indexed": false,
          "internalType": "string",
          "name": "gameLink",
          "type": "string"
        },
        {
          "indexed": false,
          "internalType": "string",
          "name": "website",
          "type": "string"
        },
        {
          "indexed": false,
          "internalType": "string",
          "name": "supportEmail",
          "type": "string"
        }
      ],
      "name": "GameLinksUpdated",
      "type": "event"
    },
    {
      "anonymous": false,
      "inputs": [
        {
          "indexed": false,
          "internalType": "string",
          "name": "name",
          "type": "string"
        },
        {
          "indexed": false,
          "internalType": "string",
          "name": "description",
          "type": "string"
        },
        {
          "indexed": false,
          "internalType": "string",
          "name": "genre",
          "type": "string"
        },
        {
          "indexed": false,
          "internalType": "string",
          "name": "imageURI",
          "type": "string"
        }
      ],
      "name": "GameMetadataUpdated",
      "type": "event"
    },
    {
      "anonymous": false,
      "inputs": [
        {
          "indexed": false,
          "internalType": "string",
          "name": "twitter",
          "type": "string"
        },
        {
          "indexed": false,
          "internalType": "string",
          "name": "discord",
          "type": "string"
        },
        {
          "indexed": false,
          "internalType": "string",
          "name": "telegram",
          "type": "string"
        },
        {
          "indexed": false,
          "internalType": "string",
          "name": "youtube",
          "type": "string"
        },
        {
          "indexed": false,
          "internalType": "string",
          "name": "tiktok",
          "type": "string"
        },
        {
          "indexed": false,
          "internalType": "string",
          "name": "instagram",
          "type": "string"
        }
      ],
      "name": "SocialLinksUpdated",
      "type": "event"
    },
    {
      "inputs": [
        {
          "internalType": "address",
          "name": "user",
          "type": "address"
        }
      ],
      "name": "addAuthorizedUser",
      "outputs": [],
      "stateMutability": "nonpayable",
      "type": "function"
    },
    {
      "inputs": [],
      "name": "getAuthorizedUsers",
      "outputs": [
        {
          "internalType": "address[]",
          "name": "",
          "type": "address[]"
        }
      ],
      "stateMutability": "view",
      "type": "function"
    },
    {
      "inputs": [],
      "name": "getGameMetadata",
      "outputs": [
        {
          "internalType": "string",
          "name": "name",
          "type": "string"
        },
        {
          "internalType": "string",
          "name": "description",
          "type": "string"
        },
        {
          "internalType": "string",
          "name": "genre",
          "type": "string"
        },
        {
          "internalType": "string",
          "name": "imageURI",
          "type": "string"
        },
        {
          "internalType": "string",
          "name": "gameLink",
          "type": "string"
        },
        {
          "internalType": "string",
          "name": "website",
          "type": "string"
        },
        {
          "internalType": "string",
          "name": "supportEmail",
          "type": "string"
        },
        {
          "components": [
            {
              "internalType": "string",
              "name": "twitter",
              "type": "string"
            },
            {
              "internalType": "string",
              "name": "discord",
              "type": "string"
            },
            {
              "internalType": "string",
              "name": "telegram",
              "type": "string"
            },
            {
              "internalType": "string",
              "name": "youtube",
              "type": "string"
            },
            {
              "internalType": "string",
              "name": "tiktok",
              "type": "string"
            },
            {
              "internalType": "string",
              "name": "instagram",
              "type": "string"
            }
          ],
          "internalType": "struct LibGameInfoStorage.SocialLinks",
          "name": "socials",
          "type": "tuple"
        }
      ],
      "stateMutability": "view",
      "type": "function"
    },
    {
      "inputs": [
        {
          "internalType": "address",
          "name": "user",
          "type": "address"
        }
      ],
      "name": "isAuthorized",
      "outputs": [
        {
          "internalType": "bool",
          "name": "",
          "type": "bool"
        }
      ],
      "stateMutability": "view",
      "type": "function"
    },
    {
      "inputs": [
        {
          "internalType": "address",
          "name": "user",
          "type": "address"
        }
      ],
      "name": "removeAuthorizedUser",
      "outputs": [],
      "stateMutability": "nonpayable",
      "type": "function"
    },
    {
      "inputs": [
        {
          "internalType": "string",
          "name": "name",
          "type": "string"
        },
        {
          "internalType": "string",
          "name": "description",
          "type": "string"
        },
        {
          "internalType": "string",
          "name": "genre",
          "type": "string"
        },
        {
          "internalType": "string",
          "name": "imageURI",
          "type": "string"
        }
      ],
      "name": "setBasicGameMetadata",
      "outputs": [],
      "stateMutability": "nonpayable",
      "type": "function"
    },
    {
      "inputs": [
        {
          "internalType": "string",
          "name": "gameLink",
          "type": "string"
        },
        {
          "internalType": "string",
          "name": "website",
          "type": "string"
        },
        {
          "internalType": "string",
          "name": "supportEmail",
          "type": "string"
        }
      ],
      "name": "setGameLinks",
      "outputs": [],
      "stateMutability": "nonpayable",
      "type": "function"
    },
    {
      "inputs": [
        {
          "internalType": "string",
          "name": "twitter",
          "type": "string"
        },
        {
          "internalType": "string",
          "name": "discord",
          "type": "string"
        },
        {
          "internalType": "string",
          "name": "telegram",
          "type": "string"
        },
        {
          "internalType": "string",
          "name": "youtube",
          "type": "string"
        },
        {
          "internalType": "string",
          "name": "tiktok",
          "type": "string"
        },
        {
          "internalType": "string",
          "name": "instagram",
          "type": "string"
        }
      ],
      "name": "setSocialLinks",
      "outputs": [],
      "stateMutability": "nonpayable",
      "type": "function"
    }
  ],
  "bytecode": "0x6080604052348015600e575f80fd5b506116c58061001c5f395ff3fe608060405234801561000f575f80fd5b5060043610610085575f3560e01c8063430118801161005857806343011880146100eb57806375d4b9de146100fe57806389fabc8014610111578063fe9fbb8014610124575f80fd5b8063177d2a74146100895780631ba7214c1461009e5780631dc20772146100bc5780634021f3c6146100cf575b5f80fd5b61009c610097366004610f47565b610147565b005b6100a661022b565b6040516100b39190610f6d565b60405180910390f35b61009c6100ca366004611055565b61029a565b6100d761033b565b6040516100b3989796959493929190611123565b61009c6100f936600461125c565b610bcf565b61009c61010c366004611311565b610c62565b61009c61011f366004610f47565b610d8b565b610137610132366004610f47565b610e3e565b60405190151581526020016100b3565b61014f610ebd565b6001600160a01b0381165f9081527f74280a4b4c55f9103e616849087d6b766bc3336a420e6c0dacf24ec2d7d7ef9c60205260409020545f805160206116708339815191529060ff166101e7576001600160a01b0382165f818152600d8301602090815260408220805460ff19166001908117909155600e850180549182018155835291200180546001600160a01b03191690911790555b604051600181526001600160a01b038316907fb9cefd74712192cc74681712dfb0226300e9103056f862d2faec198f0932b829906020015b60405180910390a25050565b60605f80516020611670833981519152600e0180548060200260200160405190810160405280929190818152602001828054801561029057602002820191905f5260205f20905b81546001600160a01b03168152600190910190602001808311610272575b5050505050905090565b6102a2610ebd565b5f805160206116708339815191527f74280a4b4c55f9103e616849087d6b766bc3336a420e6c0dacf24ec2d7d7ef936102db858261149b565b50600581016102ea848261149b565b50600681016102f9838261149b565b507ff601d92c890e33487224ceca92ab369e011c6f073d716ad8770566792a64eb2d84848460405161032d93929190611555565b60405180910390a150505050565b606080606080606080606061037f6040518060c001604052806060815260200160608152602001606081526020016060815260200160608152602001606081525090565b5f805160206116708339815191528054819081907f74280a4b4c55f9103e616849087d6b766bc3336a420e6c0dacf24ec2d7d7ef90907f74280a4b4c55f9103e616849087d6b766bc3336a420e6c0dacf24ec2d7d7ef91907f74280a4b4c55f9103e616849087d6b766bc3336a420e6c0dacf24ec2d7d7ef92907f74280a4b4c55f9103e616849087d6b766bc3336a420e6c0dacf24ec2d7d7ef93907f74280a4b4c55f9103e616849087d6b766bc3336a420e6c0dacf24ec2d7d7ef94907f74280a4b4c55f9103e616849087d6b766bc3336a420e6c0dacf24ec2d7d7ef95907f74280a4b4c55f9103e616849087d6b766bc3336a420e6c0dacf24ec2d7d7ef9690889061048c90611417565b80601f01602080910402602001604051908101604052809291908181526020018280546104b890611417565b80156105035780601f106104da57610100808354040283529160200191610503565b820191905f5260205f20905b8154815290600101906020018083116104e657829003601f168201915b5050505050975086805461051690611417565b80601f016020809104026020016040519081016040528092919081815260200182805461054290611417565b801561058d5780601f106105645761010080835404028352916020019161058d565b820191905f5260205f20905b81548152906001019060200180831161057057829003601f168201915b505050505096508580546105a090611417565b80601f01602080910402602001604051908101604052809291908181526020018280546105cc90611417565b80156106175780601f106105ee57610100808354040283529160200191610617565b820191905f5260205f20905b8154815290600101906020018083116105fa57829003601f168201915b5050505050955084805461062a90611417565b80601f016020809104026020016040519081016040528092919081815260200182805461065690611417565b80156106a15780601f10610678576101008083540402835291602001916106a1565b820191905f5260205f20905b81548152906001019060200180831161068457829003601f168201915b505050505094508380546106b490611417565b80601f01602080910402602001604051908101604052809291908181526020018280546106e090611417565b801561072b5780601f106107025761010080835404028352916020019161072b565b820191905f5260205f20905b81548152906001019060200180831161070e57829003601f168201915b5050505050935082805461073e90611417565b80601f016020809104026020016040519081016040528092919081815260200182805461076a90611417565b80156107b55780601f1061078c576101008083540402835291602001916107b5565b820191905f5260205f20905b81548152906001019060200180831161079857829003601f168201915b505050505092508180546107c890611417565b80601f01602080910402602001604051908101604052809291908181526020018280546107f490611417565b801561083f5780601f106108165761010080835404028352916020019161083f565b820191905f5260205f20905b81548152906001019060200180831161082257829003601f168201915b50505050509150806040518060c00160405290815f8201805461086190611417565b80601f016020809104026020016040519081016040528092919081815260200182805461088d90611417565b80156108d85780601f106108af576101008083540402835291602001916108d8565b820191905f5260205f20905b8154815290600101906020018083116108bb57829003601f168201915b505050505081526020016001820180546108f190611417565b80601f016020809104026020016040519081016040528092919081815260200182805461091d90611417565b80156109685780601f1061093f57610100808354040283529160200191610968565b820191905f5260205f20905b81548152906001019060200180831161094b57829003601f168201915b5050505050815260200160028201805461098190611417565b80601f01602080910402602001604051908101604052809291908181526020018280546109ad90611417565b80156109f85780601f106109cf576101008083540402835291602001916109f8565b820191905f5260205f20905b8154815290600101906020018083116109db57829003601f168201915b50505050508152602001600382018054610a1190611417565b80601f0160208091040260200160405190810160405280929190818152602001828054610a3d90611417565b8015610a885780601f10610a5f57610100808354040283529160200191610a88565b820191905f5260205f20905b815481529060010190602001808311610a6b57829003601f168201915b50505050508152602001600482018054610aa190611417565b80601f0160208091040260200160405190810160405280929190818152602001828054610acd90611417565b8015610b185780601f10610aef57610100808354040283529160200191610b18565b820191905f5260205f20905b815481529060010190602001808311610afb57829003601f168201915b50505050508152602001600582018054610b3190611417565b80601f0160208091040260200160405190810160405280929190818152602001828054610b5d90611417565b8015610ba85780601f10610b7f57610100808354040283529160200191610ba8565b820191905f5260205f20905b815481529060010190602001808311610b8b57829003601f168201915b50505050508152505090509950995099509950995099509950995050509091929394959697565b610bd7610ebd565b5f8051602061167083398151915280610bf0868261149b565b5060018101610bff858261149b565b5060028101610c0e848261149b565b5060038101610c1d838261149b565b507f787f014054d672eb89679fb7e2a7389c8ebf300b3ee8e6cbab77449fc047375285858585604051610c539493929190611597565b60405180910390a15050505050565b610c6a610ebd565b6040805160c08101825287815260208101879052908101859052606081018490526080810183905260a081018290525f80516020611670833981519152907f74280a4b4c55f9103e616849087d6b766bc3336a420e6c0dacf24ec2d7d7ef9680610cd48a8261149b565b5060208201516001820190610ce9908261149b565b5060408201516002820190610cfe908261149b565b5060608201516003820190610d13908261149b565b5060808201516004820190610d28908261149b565b5060a08201516005820190610d3d908261149b565b509050507f3cea4689cc49b815cee0bb95006cfd9ef4909180723e62495b5dc84771b38f0a878787878787604051610d7a969594939291906115ee565b60405180910390a150505050505050565b610d93610ebd565b6001600160a01b0381165f9081527f74280a4b4c55f9103e616849087d6b766bc3336a420e6c0dacf24ec2d7d7ef9c60205260409020545f805160206116708339815191529060ff1615610e03576001600160a01b0382165f908152600d820160205260409020805460ff191690555b6040515f81526001600160a01b038316907fb9cefd74712192cc74681712dfb0226300e9103056f862d2faec198f0932b8299060200161021f565b5f5f80516020611670833981519152610e7e7fc8fcad8db84d3cc18b4c41d551ea0ee66dd599cde068d998e57d5e09332c131f546001600160a01b031690565b6001600160a01b0316836001600160a01b03161480610eb657506001600160a01b0383165f908152600d8201602052604090205460ff165b9392505050565b7fc8fcad8db84d3cc18b4c41d551ea0ee66dd599cde068d998e57d5e09332c131c600301546001600160a01b03163314610f45577fc8fcad8db84d3cc18b4c41d551ea0ee66dd599cde068d998e57d5e09332c131f5460408051600162bed83560e01b031981523360048201526001600160a01b039092166024830152519081900360440190fd5b565b5f60208284031215610f57575f80fd5b81356001600160a01b0381168114610eb6575f80fd5b602080825282518282018190525f918401906040840190835b81811015610fad5783516001600160a01b0316835260209384019390920191600101610f86565b509095945050505050565b634e487b7160e01b5f52604160045260245ffd5b5f82601f830112610fdb575f80fd5b81356001600160401b03811115610ff457610ff4610fb8565b604051601f8201601f19908116603f011681016001600160401b038111828210171561102257611022610fb8565b604052818152838201602001851015611039575f80fd5b816020850160208301375f918101602001919091529392505050565b5f805f60608486031215611067575f80fd5b83356001600160401b0381111561107c575f80fd5b61108886828701610fcc565b93505060208401356001600160401b038111156110a3575f80fd5b6110af86828701610fcc565b92505060408401356001600160401b038111156110ca575f80fd5b6110d686828701610fcc565b9150509250925092565b5f81518084525f5b81811015611104576020818501810151868301820152016110e8565b505f602082860101526020601f19601f83011685010191505092915050565b61010081525f61113761010083018b6110e0565b8281036020840152611149818b6110e0565b9050828103604084015261115d818a6110e0565b9050828103606084015261117181896110e0565b9050828103608084015261118581886110e0565b905082810360a084015261119981876110e0565b905082810360c08401526111ad81866110e0565b905082810360e0840152835160c082526111ca60c08301826110e0565b9050602085015182820360208401526111e382826110e0565b915050604085015182820360408401526111fd82826110e0565b9150506060850151828203606084015261121782826110e0565b9150506080850151828203608084015261123182826110e0565b91505060a085015182820360a084015261124b82826110e0565b9d9c50505050505050505050505050565b5f805f806080858703121561126f575f80fd5b84356001600160401b03811115611284575f80fd5b61129087828801610fcc565b94505060208501356001600160401b038111156112ab575f80fd5b6112b787828801610fcc565b93505060408501356001600160401b038111156112d2575f80fd5b6112de87828801610fcc565b92505060608501356001600160401b038111156112f9575f80fd5b61130587828801610fcc565b91505092959194509250565b5f805f805f8060c08789031215611326575f80fd5b86356001600160401b0381111561133b575f80fd5b61134789828a01610fcc565b96505060208701356001600160401b03811115611362575f80fd5b61136e89828a01610fcc565b95505060408701356001600160401b03811115611389575f80fd5b61139589828a01610fcc565b94505060608701356001600160401b038111156113b0575f80fd5b6113bc89828a01610fcc565b93505060808701356001600160401b038111156113d7575f80fd5b6113e389828a01610fcc565b92505060a08701356001600160401b038111156113fe575f80fd5b61140a89828a01610fcc565b9150509295509295509295565b600181811c9082168061142b57607f821691505b60208210810361144957634e487b7160e01b5f52602260045260245ffd5b50919050565b601f82111561149657805f5260205f20601f840160051c810160208510156114745750805b601f840160051c820191505b81811015611493575f8155600101611480565b50505b505050565b81516001600160401b038111156114b4576114b4610fb8565b6114c8816114c28454611417565b8461144f565b6020601f8211600181146114fa575f83156114e35750848201515b5f19600385901b1c1916600184901b178455611493565b5f84815260208120601f198516915b828110156115295787850151825560209485019460019092019101611509565b508482101561154657868401515f19600387901b60f8161c191681555b50505050600190811b01905550565b606081525f61156760608301866110e0565b828103602084015261157981866110e0565b9050828103604084015261158d81856110e0565b9695505050505050565b608081525f6115a960808301876110e0565b82810360208401526115bb81876110e0565b905082810360408401526115cf81866110e0565b905082810360608401526115e381856110e0565b979650505050505050565b60c081525f61160060c08301896110e0565b828103602084015261161281896110e0565b9050828103604084015261162681886110e0565b9050828103606084015261163a81876110e0565b9050828103608084015261164e81866110e0565b905082810360a084015261166281856110e0565b999850505050505050505056fe74280a4b4c55f9103e616849087d6b766bc3336a420e6c0dacf24ec2d7d7ef8fa2646970667358221220f4186990fba901ee5835380b0a2b7f36d18967b102162f2bb9cda7ad3c3a8be664736f6c634300081a0033",
  "linkReferences": {},
  "deployedLinkReferences": {}
}