{
  "_format": "hh-sol-artifact-1",
  "contractName": "GameDataFacetV1",
  "sourceName": "contracts/facets/GameDataFacetV1.sol",
  "abi": [
    {
      "inputs": [],
      "name": "getGlobalGameInfo",
      "outputs": [
        {
          "components": [
            {
              "components": [
                {
                  "internalType": "string",
                  "name": "name",
                  "type": "string"
                },
                {
                  "internalType": "string",
                  "name": "description",
                  "type": "string"
                },
                {
                  "internalType": "string",
                  "name": "genre",
                  "type": "string"
                },
                {
                  "internalType": "string",
                  "name": "imageURI",
                  "type": "string"
                },
                {
                  "internalType": "string",
                  "name": "gameLink",
                  "type": "string"
                },
                {
                  "internalType": "string",
                  "name": "website",
                  "type": "string"
                },
                {
                  "internalType": "string",
                  "name": "supportEmail",
                  "type": "string"
                },
                {
                  "components": [
                    {
                      "internalType": "string",
                      "name": "twitter",
                      "type": "string"
                    },
                    {
                      "internalType": "string",
                      "name": "discord",
                      "type": "string"
                    },
                    {
                      "internalType": "string",
                      "name": "telegram",
                      "type": "string"
                    },
                    {
                      "internalType": "string",
                      "name": "youtube",
                      "type": "string"
                    },
                    {
                      "internalType": "string",
                      "name": "tiktok",
                      "type": "string"
                    },
                    {
                      "internalType": "string",
                      "name": "instagram",
                      "type": "string"
                    }
                  ],
                  "internalType": "struct LibGameInfoStorage.SocialLinks",
                  "name": "socials",
                  "type": "tuple"
                }
              ],
              "internalType": "struct LibGameInfoStorage.GameMetadata",
              "name": "metadata",
              "type": "tuple"
            },
            {
              "internalType": "uint256",
              "name": "totalPassports",
              "type": "uint256"
            },
            {
              "internalType": "uint256",
              "name": "totalItems",
              "type": "uint256"
            },
            {
              "components": [
                {
                  "internalType": "uint256",
                  "name": "tokenId",
                  "type": "uint256"
                },
                {
                  "internalType": "string",
                  "name": "name",
                  "type": "string"
                },
                {
                  "internalType": "string",
                  "name": "description",
                  "type": "string"
                },
                {
                  "internalType": "string",
                  "name": "imageURI",
                  "type": "string"
                },
                {
                  "components": [
                    {
                      "internalType": "string",
                      "name": "trait_type",
                      "type": "string"
                    },
                    {
                      "internalType": "string",
                      "name": "value",
                      "type": "string"
                    },
                    {
                      "internalType": "string",
                      "name": "display_type",
                      "type": "string"
                    }
                  ],
                  "internalType": "struct LibInventoryStorage.Attribute[]",
                  "name": "attributes",
                  "type": "tuple[]"
                }
              ],
              "internalType": "struct GameDataFacetV1.ItemWithId[]",
              "name": "allItems",
              "type": "tuple[]"
            },
            {
              "components": [
                {
                  "internalType": "string",
                  "name": "trait_type",
                  "type": "string"
                },
                {
                  "internalType": "string",
                  "name": "value",
                  "type": "string"
                },
                {
                  "internalType": "string",
                  "name": "display_type",
                  "type": "string"
                },
                {
                  "internalType": "string",
                  "name": "uri",
                  "type": "string"
                }
              ],
              "internalType": "struct LibPassportStorage.Attribute[]",
              "name": "globalPassportTraits",
              "type": "tuple[]"
            },
            {
              "components": [
                {
                  "internalType": "string",
                  "name": "trait_type",
                  "type": "string"
                },
                {
                  "internalType": "string",
                  "name": "value",
                  "type": "string"
                },
                {
                  "internalType": "string",
                  "name": "uri",
                  "type": "string"
                }
              ],
              "internalType": "struct LibPassportStorage.MetadataField[]",
              "name": "globalUserMetadata",
              "type": "tuple[]"
            },
            {
              "components": [
                {
                  "internalType": "string",
                  "name": "name",
                  "type": "string"
                },
                {
                  "internalType": "address",
                  "name": "facetAddress",
                  "type": "address"
                }
              ],
              "internalType": "struct GameDataFacetV1.FacetInfo[]",
              "name": "deployedFacets",
              "type": "tuple[]"
            }
          ],
          "internalType": "struct GameDataFacetV1.GlobalGameData",
          "name": "data",
          "type": "tuple"
        }
      ],
      "stateMutability": "view",
      "type": "function"
    },
    {
      "inputs": [
        {
          "internalType": "uint256",
          "name": "offset",
          "type": "uint256"
        },
        {
          "internalType": "uint256",
          "name": "limit",
          "type": "uint256"
        }
      ],
      "name": "getPlayerSnapshots",
      "outputs": [
        {
          "components": [
            {
              "internalType": "address",
              "name": "wallet",
              "type": "address"
            },
            {
              "internalType": "uint256",
              "name": "tokenId",
              "type": "uint256"
            },
            {
              "components": [
                {
                  "internalType": "string",
                  "name": "trait_type",
                  "type": "string"
                },
                {
                  "internalType": "string",
                  "name": "value",
                  "type": "string"
                },
                {
                  "internalType": "string",
                  "name": "display_type",
                  "type": "string"
                },
                {
                  "internalType": "string",
                  "name": "uri",
                  "type": "string"
                }
              ],
              "internalType": "struct LibPassportStorage.Attribute[]",
              "name": "passportAttributes",
              "type": "tuple[]"
            },
            {
              "components": [
                {
                  "internalType": "string",
                  "name": "trait_type",
                  "type": "string"
                },
                {
                  "internalType": "string",
                  "name": "value",
                  "type": "string"
                },
                {
                  "internalType": "string",
                  "name": "uri",
                  "type": "string"
                }
              ],
              "internalType": "struct LibPassportStorage.MetadataField[]",
              "name": "userMetadata",
              "type": "tuple[]"
            },
            {
              "internalType": "uint256[]",
              "name": "itemIds",
              "type": "uint256[]"
            },
            {
              "internalType": "uint256[]",
              "name": "itemBalances",
              "type": "uint256[]"
            }
          ],
          "internalType": "struct GameDataFacetV1.PlayerSnapshot[]",
          "name": "snapshots",
          "type": "tuple[]"
        }
      ],
      "stateMutability": "view",
      "type": "function"
    }
  ],
  "bytecode": "0x6080604052348015600e575f80fd5b506127868061001c5f395ff3fe608060405234801561000f575f80fd5b5060043610610034575f3560e01c806319851df6146100385780637e86e30f14610056575b5f80fd5b610040610076565b60405161004d91906123dc565b60405180910390f35b610069610064366004612567565b611671565b60405161004d91906125c1565b61007e611f45565b7ff7a4cc25de86b3d5d2cd09869dfdab61b73ade0ec7b7207aea84cf74e0a76945547f74280a4b4c55f9103e616849087d6b766bc3336a420e6c0dacf24ec2d7d7ef8f907fa94ee65e5cde08120007cf11724b7ceacd0a62f5c31251df347a1ebf372267ae907ff7a4cc25de86b3d5d2cd09869dfdab61b73ade0ec7b7207aea84cf74e0a76943907fceb371f14680b24778678cd24efa5bf3e4318515dc0f63b3b54b5c95a7bd9e5e905f8167ffffffffffffffff8111156101425761014261269b565b6040519080825280602002602001820160405280156101a457816020015b6101916040518060a001604052805f8152602001606081526020016060815260200160608152602001606081525090565b8152602001906001900390816101605790505b5090505f5b8281101561065a575f8560020182815481106101c7576101c76126af565b5f91825260208083209091015480835290889052604082206004810154919350918167ffffffffffffffff8111156102015761020161269b565b60405190808252806020026020018201604052801561025657816020015b61024360405180606001604052806060815260200160608152602001606081525090565b81526020019060019003908161021f5790505b5090505f5b8281101561046357836004018181548110610278576102786126af565b905f5260205f2090600302016040518060600160405290815f8201805461029e906126c3565b80601f01602080910402602001604051908101604052809291908181526020018280546102ca906126c3565b80156103155780601f106102ec57610100808354040283529160200191610315565b820191905f5260205f20905b8154815290600101906020018083116102f857829003601f168201915b5050505050815260200160018201805461032e906126c3565b80601f016020809104026020016040519081016040528092919081815260200182805461035a906126c3565b80156103a55780601f1061037c576101008083540402835291602001916103a5565b820191905f5260205f20905b81548152906001019060200180831161038857829003601f168201915b505050505081526020016002820180546103be906126c3565b80601f01602080910402602001604051908101604052809291908181526020018280546103ea906126c3565b80156104355780601f1061040c57610100808354040283529160200191610435565b820191905f5260205f20905b81548152906001019060200180831161041857829003601f168201915b505050505081525050828281518110610450576104506126af565b602090810291909101015260010161025b565b506040518060a00160405280845f01548152602001846001018054610487906126c3565b80601f01602080910402602001604051908101604052809291908181526020018280546104b3906126c3565b80156104fe5780601f106104d5576101008083540402835291602001916104fe565b820191905f5260205f20905b8154815290600101906020018083116104e157829003601f168201915b50505050508152602001846002018054610517906126c3565b80601f0160208091040260200160405190810160405280929190818152602001828054610543906126c3565b801561058e5780601f106105655761010080835404028352916020019161058e565b820191905f5260205f20905b81548152906001019060200180831161057157829003601f168201915b505050505081526020018460030180546105a7906126c3565b80601f01602080910402602001604051908101604052809291908181526020018280546105d3906126c3565b801561061e5780601f106105f55761010080835404028352916020019161061e565b820191905f5260205f20905b81548152906001019060200180831161060157829003601f168201915b505050505081526020018281525086868151811061063e5761063e6126af565b60200260200101819052505050505080806001019150506101a9565b50600b8501545f8167ffffffffffffffff81111561067a5761067a61269b565b6040519080825280602002602001820160405280156106d657816020015b6106c36040518060800160405280606081526020016060815260200160608152602001606081525090565b8152602001906001900390816106985790505b5090505f5b82811015610a1a575f88600b0182815481106106f9576106f96126af565b905f5260205f2001805461070c906126c3565b80601f0160208091040260200160405190810160405280929190818152602001828054610738906126c3565b80156107835780601f1061075a57610100808354040283529160200191610783565b820191905f5260205f20905b81548152906001019060200180831161076657829003601f168201915b5050505050905088600a018160405161079c91906126fb565b90815260200160405180910390206040518060800160405290815f820180546107c4906126c3565b80601f01602080910402602001604051908101604052809291908181526020018280546107f0906126c3565b801561083b5780601f106108125761010080835404028352916020019161083b565b820191905f5260205f20905b81548152906001019060200180831161081e57829003601f168201915b50505050508152602001600182018054610854906126c3565b80601f0160208091040260200160405190810160405280929190818152602001828054610880906126c3565b80156108cb5780601f106108a2576101008083540402835291602001916108cb565b820191905f5260205f20905b8154815290600101906020018083116108ae57829003601f168201915b505050505081526020016002820180546108e4906126c3565b80601f0160208091040260200160405190810160405280929190818152602001828054610910906126c3565b801561095b5780601f106109325761010080835404028352916020019161095b565b820191905f5260205f20905b81548152906001019060200180831161093e57829003601f168201915b50505050508152602001600382018054610974906126c3565b80601f01602080910402602001604051908101604052809291908181526020018280546109a0906126c3565b80156109eb5780601f106109c2576101008083540402835291602001916109eb565b820191905f5260205f20905b8154815290600101906020018083116109ce57829003601f168201915b505050505081525050838381518110610a0657610a066126af565b6020908102919091010152506001016106db565b50600e8701545f8167ffffffffffffffff811115610a3a57610a3a61269b565b604051908082528060200260200182016040528015610a8f57816020015b610a7c60405180606001604052806060815260200160608152602001606081525090565b815260200190600190039081610a585790505b5090505f5b82811015610d43575f8a600e018281548110610ab257610ab26126af565b905f5260205f20018054610ac5906126c3565b80601f0160208091040260200160405190810160405280929190818152602001828054610af1906126c3565b8015610b3c5780601f10610b1357610100808354040283529160200191610b3c565b820191905f5260205f20905b815481529060010190602001808311610b1f57829003601f168201915b505050505090508a600d0181604051610b5591906126fb565b90815260200160405180910390206040518060600160405290815f82018054610b7d906126c3565b80601f0160208091040260200160405190810160405280929190818152602001828054610ba9906126c3565b8015610bf45780601f10610bcb57610100808354040283529160200191610bf4565b820191905f5260205f20905b815481529060010190602001808311610bd757829003601f168201915b50505050508152602001600182018054610c0d906126c3565b80601f0160208091040260200160405190810160405280929190818152602001828054610c39906126c3565b8015610c845780601f10610c5b57610100808354040283529160200191610c84565b820191905f5260205f20905b815481529060010190602001808311610c6757829003601f168201915b50505050508152602001600282018054610c9d906126c3565b80601f0160208091040260200160405190810160405280929190818152602001828054610cc9906126c3565b8015610d145780601f10610ceb57610100808354040283529160200191610d14565b820191905f5260205f20905b815481529060010190602001808311610cf757829003601f168201915b505050505081525050838381518110610d2f57610d2f6126af565b602090810291909101015250600101610a94565b5060028701545f8167ffffffffffffffff811115610d6357610d6361269b565b604051908082528060200260200182016040528015610da857816020015b60408051808201909152606081525f6020820152815260200190600190039081610d815790505b5090505f5b82811015610eba575f8a6002018281548110610dcb57610dcb6126af565b5f9182526020808320909101546040805180820182526001600160a01b03909216808552928f905290922080549193508291610e06906126c3565b80601f0160208091040260200160405190810160405280929190818152602001828054610e32906126c3565b8015610e7d5780601f10610e5457610100808354040283529160200191610e7d565b820191905f5260205f20905b815481529060010190602001808311610e6057829003601f168201915b50505050508152602001826001600160a01b0316815250838381518110610ea657610ea66126af565b602090810291909101015250600101610dad565b50604080516101e081019091528c54819060e08201908f9082908290610edf906126c3565b80601f0160208091040260200160405190810160405280929190818152602001828054610f0b906126c3565b8015610f565780601f10610f2d57610100808354040283529160200191610f56565b820191905f5260205f20905b815481529060010190602001808311610f3957829003601f168201915b50505050508152602001600182018054610f6f906126c3565b80601f0160208091040260200160405190810160405280929190818152602001828054610f9b906126c3565b8015610fe65780601f10610fbd57610100808354040283529160200191610fe6565b820191905f5260205f20905b815481529060010190602001808311610fc957829003601f168201915b50505050508152602001600282018054610fff906126c3565b80601f016020809104026020016040519081016040528092919081815260200182805461102b906126c3565b80156110765780601f1061104d57610100808354040283529160200191611076565b820191905f5260205f20905b81548152906001019060200180831161105957829003601f168201915b5050505050815260200160038201805461108f906126c3565b80601f01602080910402602001604051908101604052809291908181526020018280546110bb906126c3565b80156111065780601f106110dd57610100808354040283529160200191611106565b820191905f5260205f20905b8154815290600101906020018083116110e957829003601f168201915b5050505050815260200160048201805461111f906126c3565b80601f016020809104026020016040519081016040528092919081815260200182805461114b906126c3565b80156111965780601f1061116d57610100808354040283529160200191611196565b820191905f5260205f20905b81548152906001019060200180831161117957829003601f168201915b505050505081526020016005820180546111af906126c3565b80601f01602080910402602001604051908101604052809291908181526020018280546111db906126c3565b80156112265780601f106111fd57610100808354040283529160200191611226565b820191905f5260205f20905b81548152906001019060200180831161120957829003601f168201915b5050505050815260200160068201805461123f906126c3565b80601f016020809104026020016040519081016040528092919081815260200182805461126b906126c3565b80156112b65780601f1061128d576101008083540402835291602001916112b6565b820191905f5260205f20905b81548152906001019060200180831161129957829003601f168201915b50505050508152602001600782016040518060c00160405290815f820180546112de906126c3565b80601f016020809104026020016040519081016040528092919081815260200182805461130a906126c3565b80156113555780601f1061132c57610100808354040283529160200191611355565b820191905f5260205f20905b81548152906001019060200180831161133857829003601f168201915b5050505050815260200160018201805461136e906126c3565b80601f016020809104026020016040519081016040528092919081815260200182805461139a906126c3565b80156113e55780601f106113bc576101008083540402835291602001916113e5565b820191905f5260205f20905b8154815290600101906020018083116113c857829003601f168201915b505050505081526020016002820180546113fe906126c3565b80601f016020809104026020016040519081016040528092919081815260200182805461142a906126c3565b80156114755780601f1061144c57610100808354040283529160200191611475565b820191905f5260205f20905b81548152906001019060200180831161145857829003601f168201915b5050505050815260200160038201805461148e906126c3565b80601f01602080910402602001604051908101604052809291908181526020018280546114ba906126c3565b80156115055780601f106114dc57610100808354040283529160200191611505565b820191905f5260205f20905b8154815290600101906020018083116114e857829003601f168201915b5050505050815260200160048201805461151e906126c3565b80601f016020809104026020016040519081016040528092919081815260200182805461154a906126c3565b80156115955780601f1061156c57610100808354040283529160200191611595565b820191905f5260205f20905b81548152906001019060200180831161157857829003601f168201915b505050505081526020016005820180546115ae906126c3565b80601f01602080910402602001604051908101604052809291908181526020018280546115da906126c3565b80156116255780601f106115fc57610100808354040283529160200191611625565b820191905f5260205f20905b81548152906001019060200180831161160857829003601f168201915b5050505050815250508152505081526020018c600f01805490508152602001898152602001888152602001868152602001848152602001828152509c5050505050505050505050505090565b7fa94ee65e5cde08120007cf11724b7ceacd0a62f5c31251df347a1ebf372267bd546060907fa94ee65e5cde08120007cf11724b7ceacd0a62f5c31251df347a1ebf372267ae907ff7a4cc25de86b3d5d2cd09869dfdab61b73ade0ec7b7207aea84cf74e0a769439080861061171c57604080515f8082526020820190925290611711565b6116fe611f86565b8152602001906001900390816116f65790505b509350505050611f3f565b8481611728828961272a565b111561173b57611738878361273d565b90505b8067ffffffffffffffff8111156117545761175461269b565b60405190808252806020026020018201604052801561178d57816020015b61177a611f86565b8152602001906001900390816117725790505b5094505f5b81811015611f39575f600f86016117a9838b61272a565b815481106117b9576117b96126af565b5f9182526020808320909101546001600160a01b03168083526008890190915260408220546002880154919350918167ffffffffffffffff8111156118005761180061269b565b604051908082528060200260200182016040528015611829578160200160208202803683370190505b5090505f8267ffffffffffffffff8111156118465761184661269b565b60405190808252806020026020018201604052801561186f578160200160208202803683370190505b505f85815260098c0160205260408120549192509067ffffffffffffffff81111561189c5761189c61269b565b6040519080825280602002602001820160405280156118f857816020015b6118e56040518060800160405280606081526020016060815260200160608152602001606081525090565b8152602001906001900390816118ba5790505b5090505f5b8151811015611ba2575f86815260098d0160205260409020805482908110611927576119276126af565b905f5260205f2090600402016040518060800160405290815f8201805461194d906126c3565b80601f0160208091040260200160405190810160405280929190818152602001828054611979906126c3565b80156119c45780601f1061199b576101008083540402835291602001916119c4565b820191905f5260205f20905b8154815290600101906020018083116119a757829003601f168201915b505050505081526020016001820180546119dd906126c3565b80601f0160208091040260200160405190810160405280929190818152602001828054611a09906126c3565b8015611a545780601f10611a2b57610100808354040283529160200191611a54565b820191905f5260205f20905b815481529060010190602001808311611a3757829003601f168201915b50505050508152602001600282018054611a6d906126c3565b80601f0160208091040260200160405190810160405280929190818152602001828054611a99906126c3565b8015611ae45780601f10611abb57610100808354040283529160200191611ae4565b820191905f5260205f20905b815481529060010190602001808311611ac757829003601f168201915b50505050508152602001600382018054611afd906126c3565b80601f0160208091040260200160405190810160405280929190818152602001828054611b29906126c3565b8015611b745780601f10611b4b57610100808354040283529160200191611b74565b820191905f5260205f20905b815481529060010190602001808311611b5757829003601f168201915b505050505081525050828281518110611b8f57611b8f6126af565b60209081029190910101526001016118fd565b505f858152600c8c01602052604081205467ffffffffffffffff811115611bcb57611bcb61269b565b604051908082528060200260200182016040528015611c2057816020015b611c0d60405180606001604052806060815260200160608152602001606081525090565b815260200190600190039081611be95790505b5090505f5b8151811015611e3a575f878152600c8e0160205260409020805482908110611c4f57611c4f6126af565b905f5260205f2090600302016040518060600160405290815f82018054611c75906126c3565b80601f0160208091040260200160405190810160405280929190818152602001828054611ca1906126c3565b8015611cec5780601f10611cc357610100808354040283529160200191611cec565b820191905f5260205f20905b815481529060010190602001808311611ccf57829003601f168201915b50505050508152602001600182018054611d05906126c3565b80601f0160208091040260200160405190810160405280929190818152602001828054611d31906126c3565b8015611d7c5780601f10611d5357610100808354040283529160200191611d7c565b820191905f5260205f20905b815481529060010190602001808311611d5f57829003601f168201915b50505050508152602001600282018054611d95906126c3565b80601f0160208091040260200160405190810160405280929190818152602001828054611dc1906126c3565b8015611e0c5780601f10611de357610100808354040283529160200191611e0c565b820191905f5260205f20905b815481529060010190602001808311611def57829003601f168201915b505050505081525050828281518110611e2757611e276126af565b6020908102919091010152600101611c25565b505f5b85811015611ed1575f8c6002018281548110611e5b57611e5b6126af565b905f5260205f200154905080868381518110611e7957611e796126af565b6020908102919091018101919091526001600160a01b038a165f90815260038f018252604080822084835290925220548551869084908110611ebd57611ebd6126af565b602090810291909101015250600101611e3d565b506040518060c00160405280886001600160a01b03168152602001878152602001838152602001828152602001858152602001848152508d8981518110611f1a57611f1a6126af565b6020026020010181905250505050505050508080600101915050611792565b50505050505b92915050565b6040518060e00160405280611f58611fc3565b81526020015f81526020015f8152602001606081526020016060815260200160608152602001606081525090565b6040518060c001604052805f6001600160a01b031681526020015f8152602001606081526020016060815260200160608152602001606081525090565b604051806101000160405280606081526020016060815260200160608152602001606081526020016060815260200160608152602001606081526020016120396040518060c001604052806060815260200160608152602001606081526020016060815260200160608152602001606081525090565b905290565b5f5b83811015612058578181015183820152602001612040565b50505f910152565b5f815180845261207781602086016020860161203e565b601f01601f19169290920160200192915050565b5f815160c0845261209f60c0850182612060565b9050602083015184820360208601526120b88282612060565b915050604083015184820360408601526120d28282612060565b915050606083015184820360608601526120ec8282612060565b915050608083015184820360808601526121068282612060565b91505060a083015184820360a08601526121208282612060565b95945050505050565b5f81516060845261213d6060850182612060565b9050602083015184820360208601526121568282612060565b915050604083015184820360408601526121208282612060565b5f82825180855260208501945060208160051b830101602085015f5b8381101561226f57601f19858403018852815180518452602081015160a060208601526121bc60a0860182612060565b9050604082015185820360408701526121d58282612060565b915050606082015185820360608701526121ef8282612060565b91505060808201519150848103608086015280825180835260208301915060208160051b8401016020850194505f5b8281101561224f57601f1985830301845261223a828751612129565b6020968701969490940193915060010161221e565b50809750505050505060208201915060208801975060018101905061218c565b50909695505050505050565b5f82825180855260208501945060208160051b830101602085015f5b8381101561226f57601f1985840301885281518051608085526122bd6080860182612060565b9050602082015185820360208701526122d68282612060565b915050604082015185820360408701526122f08282612060565b91505060608201519150848103606086015261230c8183612060565b60209a8b019a90955093909301925050600101612297565b5f82825180855260208501945060208160051b830101602085015f5b8381101561226f57601f1985840301885261235c838351612129565b6020988901989093509190910190600101612340565b5f82825180855260208501945060208160051b830101602085015f5b8381101561226f57601f1985840301885281518051604085526123b46040860182612060565b6020928301516001600160a01b0316958301959095525097880197919091019060010161238e565b602081525f825160e06020840152805161010080850152612401610200850182612060565b9050602082015160ff198583030161012086015261241f8282612060565b915050604082015160ff198583030161014086015261243e8282612060565b915050606082015160ff198583030161016086015261245d8282612060565b915050608082015160ff198583030161018086015261247c8282612060565b91505060a082015160ff19858303016101a086015261249b8282612060565b91505060c082015160ff19858303016101c08601526124ba8282612060565b91505060e0820151915060ff19848203016101e08501526124db818361208b565b91505060208401516040840152604084015160608401526060840151601f1984830301608085015261250d8282612170565b9150506080840151601f198483030160a085015261252b828261227b565b91505060a0840151601f198483030160c08501526125498282612324565b91505060c0840151601f198483030160e08501526121208282612372565b5f8060408385031215612578575f80fd5b50508035926020909101359150565b5f8151808452602084019350602083015f5b828110156125b7578151865260209586019590910190600101612599565b5093949350505050565b5f602082016020835280845180835260408501915060408160051b8601019250602086015f5b8281101561268f57603f19878603018452815160018060a01b03815116865260208101516020870152604081015160c0604088015261262960c088018261227b565b9050606082015187820360608901526126428282612324565b9150506080820151878203608089015261265c8282612587565b91505060a0820151915086810360a08801526126788183612587565b9650505060209384019391909101906001016125e7565b50929695505050505050565b634e487b7160e01b5f52604160045260245ffd5b634e487b7160e01b5f52603260045260245ffd5b600181811c908216806126d757607f821691505b6020821081036126f557634e487b7160e01b5f52602260045260245ffd5b50919050565b5f825161270c81846020870161203e565b9190910192915050565b634e487b7160e01b5f52601160045260245ffd5b80820180821115611f3f57611f3f612716565b81810381811115611f3f57611f3f61271656fea26469706673582212205286d01fc1f09d07cb2a59986ccc36c71da929a0eeff31be1af704dffe8eec3764736f6c634300081a0033",
  "linkReferences": {},
  "deployedLinkReferences": {}
}