{
  "_format": "hh-sol-artifact-1",
  "contractName": "InventoryFacet",
  "sourceName": "contracts/facets/InventoryFacet.sol",
  "abi": [
    {
      "anonymous": false,
      "inputs": [
        {
          "indexed": true,
          "internalType": "address",
          "name": "account",
          "type": "address"
        },
        {
          "indexed": true,
          "internalType": "address",
          "name": "operator",
          "type": "address"
        },
        {
          "indexed": false,
          "internalType": "bool",
          "name": "approved",
          "type": "bool"
        }
      ],
      "name": "ApprovalForAll",
      "type": "event"
    },
    {
      "anonymous": false,
      "inputs": [
        {
          "indexed": true,
          "internalType": "address",
          "name": "user",
          "type": "address"
        },
        {
          "indexed": true,
          "internalType": "uint256",
          "name": "tokenId",
          "type": "uint256"
        },
        {
          "indexed": false,
          "internalType": "uint256",
          "name": "amount",
          "type": "uint256"
        }
      ],
      "name": "BalanceSet",
      "type": "event"
    },
    {
      "anonymous": false,
      "inputs": [
        {
          "indexed": true,
          "internalType": "uint256",
          "name": "tokenId",
          "type": "uint256"
        },
        {
          "indexed": false,
          "internalType": "string",
          "name": "name",
          "type": "string"
        }
      ],
      "name": "ItemAdded",
      "type": "event"
    },
    {
      "anonymous": false,
      "inputs": [
        {
          "indexed": true,
          "internalType": "address",
          "name": "to",
          "type": "address"
        },
        {
          "indexed": true,
          "internalType": "uint256",
          "name": "tokenId",
          "type": "uint256"
        },
        {
          "indexed": false,
          "internalType": "uint256",
          "name": "amount",
          "type": "uint256"
        }
      ],
      "name": "ItemMinted",
      "type": "event"
    },
    {
      "anonymous": false,
      "inputs": [
        {
          "indexed": true,
          "internalType": "uint256",
          "name": "tokenId",
          "type": "uint256"
        }
      ],
      "name": "ItemRemoved",
      "type": "event"
    },
    {
      "anonymous": false,
      "inputs": [
        {
          "indexed": true,
          "internalType": "address",
          "name": "from",
          "type": "address"
        },
        {
          "indexed": true,
          "internalType": "address",
          "name": "to",
          "type": "address"
        },
        {
          "indexed": true,
          "internalType": "uint256",
          "name": "tokenId",
          "type": "uint256"
        },
        {
          "indexed": false,
          "internalType": "uint256",
          "name": "amount",
          "type": "uint256"
        }
      ],
      "name": "ItemTransferred",
      "type": "event"
    },
    {
      "anonymous": false,
      "inputs": [
        {
          "indexed": true,
          "internalType": "address",
          "name": "from",
          "type": "address"
        },
        {
          "indexed": true,
          "internalType": "address",
          "name": "to",
          "type": "address"
        },
        {
          "indexed": false,
          "internalType": "uint256[]",
          "name": "tokenIds",
          "type": "uint256[]"
        },
        {
          "indexed": false,
          "internalType": "uint256[]",
          "name": "amounts",
          "type": "uint256[]"
        }
      ],
      "name": "ItemTransferredBatch",
      "type": "event"
    },
    {
      "anonymous": false,
      "inputs": [
        {
          "indexed": true,
          "internalType": "uint256",
          "name": "tokenId",
          "type": "uint256"
        }
      ],
      "name": "ItemUpdated",
      "type": "event"
    },
    {
      "anonymous": false,
      "inputs": [
        {
          "indexed": true,
          "internalType": "address",
          "name": "to",
          "type": "address"
        },
        {
          "indexed": false,
          "internalType": "uint256[]",
          "name": "tokenIds",
          "type": "uint256[]"
        },
        {
          "indexed": false,
          "internalType": "uint256[]",
          "name": "amounts",
          "type": "uint256[]"
        }
      ],
      "name": "ItemsMinted",
      "type": "event"
    },
    {
      "anonymous": false,
      "inputs": [
        {
          "indexed": true,
          "internalType": "address",
          "name": "operator",
          "type": "address"
        },
        {
          "indexed": true,
          "internalType": "address",
          "name": "from",
          "type": "address"
        },
        {
          "indexed": true,
          "internalType": "address",
          "name": "to",
          "type": "address"
        },
        {
          "indexed": false,
          "internalType": "uint256[]",
          "name": "ids",
          "type": "uint256[]"
        },
        {
          "indexed": false,
          "internalType": "uint256[]",
          "name": "values",
          "type": "uint256[]"
        }
      ],
      "name": "TransferBatch",
      "type": "event"
    },
    {
      "anonymous": false,
      "inputs": [
        {
          "indexed": true,
          "internalType": "address",
          "name": "operator",
          "type": "address"
        },
        {
          "indexed": true,
          "internalType": "address",
          "name": "from",
          "type": "address"
        },
        {
          "indexed": true,
          "internalType": "address",
          "name": "to",
          "type": "address"
        },
        {
          "indexed": false,
          "internalType": "uint256",
          "name": "id",
          "type": "uint256"
        },
        {
          "indexed": false,
          "internalType": "uint256",
          "name": "value",
          "type": "uint256"
        }
      ],
      "name": "TransferSingle",
      "type": "event"
    },
    {
      "anonymous": false,
      "inputs": [
        {
          "indexed": false,
          "internalType": "string",
          "name": "value",
          "type": "string"
        },
        {
          "indexed": true,
          "internalType": "uint256",
          "name": "id",
          "type": "uint256"
        }
      ],
      "name": "URI",
      "type": "event"
    },
    {
      "inputs": [
        {
          "internalType": "uint256",
          "name": "tokenId",
          "type": "uint256"
        },
        {
          "internalType": "string",
          "name": "name",
          "type": "string"
        },
        {
          "internalType": "string",
          "name": "description",
          "type": "string"
        },
        {
          "internalType": "string",
          "name": "imageURI",
          "type": "string"
        },
        {
          "components": [
            {
              "internalType": "string",
              "name": "trait_type",
              "type": "string"
            },
            {
              "internalType": "string",
              "name": "value",
              "type": "string"
            },
            {
              "internalType": "string",
              "name": "display_type",
              "type": "string"
            }
          ],
          "internalType": "struct LibInventoryStorage.Attribute[]",
          "name": "attributes",
          "type": "tuple[]"
        }
      ],
      "name": "addItem",
      "outputs": [],
      "stateMutability": "nonpayable",
      "type": "function"
    },
    {
      "inputs": [
        {
          "internalType": "address",
          "name": "account",
          "type": "address"
        },
        {
          "internalType": "uint256",
          "name": "tokenId",
          "type": "uint256"
        }
      ],
      "name": "balanceOf",
      "outputs": [
        {
          "internalType": "uint256",
          "name": "",
          "type": "uint256"
        }
      ],
      "stateMutability": "view",
      "type": "function"
    },
    {
      "inputs": [
        {
          "internalType": "address[]",
          "name": "accounts",
          "type": "address[]"
        },
        {
          "internalType": "uint256[]",
          "name": "ids",
          "type": "uint256[]"
        }
      ],
      "name": "balanceOfBatch",
      "outputs": [
        {
          "internalType": "uint256[]",
          "name": "balances",
          "type": "uint256[]"
        }
      ],
      "stateMutability": "view",
      "type": "function"
    },
    {
      "inputs": [],
      "name": "getAllItemIds",
      "outputs": [
        {
          "internalType": "uint256[]",
          "name": "",
          "type": "uint256[]"
        }
      ],
      "stateMutability": "view",
      "type": "function"
    },
    {
      "inputs": [],
      "name": "getAllItems",
      "outputs": [
        {
          "components": [
            {
              "internalType": "uint256",
              "name": "tokenId",
              "type": "uint256"
            },
            {
              "internalType": "string",
              "name": "name",
              "type": "string"
            },
            {
              "internalType": "string",
              "name": "description",
              "type": "string"
            },
            {
              "internalType": "string",
              "name": "imageURI",
              "type": "string"
            },
            {
              "components": [
                {
                  "internalType": "string",
                  "name": "trait_type",
                  "type": "string"
                },
                {
                  "internalType": "string",
                  "name": "value",
                  "type": "string"
                },
                {
                  "internalType": "string",
                  "name": "display_type",
                  "type": "string"
                }
              ],
              "internalType": "struct LibInventoryStorage.Attribute[]",
              "name": "attributes",
              "type": "tuple[]"
            }
          ],
          "internalType": "struct ItemWithId[]",
          "name": "items",
          "type": "tuple[]"
        }
      ],
      "stateMutability": "view",
      "type": "function"
    },
    {
      "inputs": [
        {
          "internalType": "uint256",
          "name": "tokenId",
          "type": "uint256"
        }
      ],
      "name": "getItem",
      "outputs": [
        {
          "internalType": "string",
          "name": "name",
          "type": "string"
        },
        {
          "internalType": "string",
          "name": "description",
          "type": "string"
        },
        {
          "internalType": "string",
          "name": "imageURI",
          "type": "string"
        },
        {
          "components": [
            {
              "internalType": "string",
              "name": "trait_type",
              "type": "string"
            },
            {
              "internalType": "string",
              "name": "value",
              "type": "string"
            },
            {
              "internalType": "string",
              "name": "display_type",
              "type": "string"
            }
          ],
          "internalType": "struct LibInventoryStorage.Attribute[]",
          "name": "attributes",
          "type": "tuple[]"
        }
      ],
      "stateMutability": "view",
      "type": "function"
    },
    {
      "inputs": [
        {
          "internalType": "address",
          "name": "user",
          "type": "address"
        }
      ],
      "name": "getUserItems",
      "outputs": [
        {
          "internalType": "uint256[]",
          "name": "itemIds",
          "type": "uint256[]"
        },
        {
          "internalType": "uint256[]",
          "name": "balances",
          "type": "uint256[]"
        }
      ],
      "stateMutability": "view",
      "type": "function"
    },
    {
      "inputs": [
        {
          "internalType": "address",
          "name": "account",
          "type": "address"
        },
        {
          "internalType": "address",
          "name": "operator",
          "type": "address"
        }
      ],
      "name": "isApprovedForAll",
      "outputs": [
        {
          "internalType": "bool",
          "name": "",
          "type": "bool"
        }
      ],
      "stateMutability": "view",
      "type": "function"
    },
    {
      "inputs": [
        {
          "internalType": "address",
          "name": "to",
          "type": "address"
        },
        {
          "internalType": "uint256",
          "name": "tokenId",
          "type": "uint256"
        },
        {
          "internalType": "uint256",
          "name": "amount",
          "type": "uint256"
        }
      ],
      "name": "mint",
      "outputs": [],
      "stateMutability": "nonpayable",
      "type": "function"
    },
    {
      "inputs": [
        {
          "internalType": "address",
          "name": "to",
          "type": "address"
        },
        {
          "internalType": "uint256[]",
          "name": "tokenIds",
          "type": "uint256[]"
        },
        {
          "internalType": "uint256[]",
          "name": "amounts",
          "type": "uint256[]"
        }
      ],
      "name": "mintBatch",
      "outputs": [],
      "stateMutability": "nonpayable",
      "type": "function"
    },
    {
      "inputs": [
        {
          "internalType": "uint256",
          "name": "tokenId",
          "type": "uint256"
        }
      ],
      "name": "removeItem",
      "outputs": [],
      "stateMutability": "nonpayable",
      "type": "function"
    },
    {
      "inputs": [
        {
          "internalType": "address",
          "name": "from",
          "type": "address"
        },
        {
          "internalType": "address",
          "name": "to",
          "type": "address"
        },
        {
          "internalType": "uint256[]",
          "name": "ids",
          "type": "uint256[]"
        },
        {
          "internalType": "uint256[]",
          "name": "amounts",
          "type": "uint256[]"
        },
        {
          "internalType": "bytes",
          "name": "data",
          "type": "bytes"
        }
      ],
      "name": "safeBatchTransferFrom",
      "outputs": [],
      "stateMutability": "nonpayable",
      "type": "function"
    },
    {
      "inputs": [
        {
          "internalType": "address",
          "name": "from",
          "type": "address"
        },
        {
          "internalType": "address",
          "name": "to",
          "type": "address"
        },
        {
          "internalType": "uint256",
          "name": "id",
          "type": "uint256"
        },
        {
          "internalType": "uint256",
          "name": "value",
          "type": "uint256"
        },
        {
          "internalType": "bytes",
          "name": "data",
          "type": "bytes"
        }
      ],
      "name": "safeTransferFrom",
      "outputs": [],
      "stateMutability": "nonpayable",
      "type": "function"
    },
    {
      "inputs": [
        {
          "internalType": "address",
          "name": "operator",
          "type": "address"
        },
        {
          "internalType": "bool",
          "name": "approved",
          "type": "bool"
        }
      ],
      "name": "setApprovalForAll",
      "outputs": [],
      "stateMutability": "nonpayable",
      "type": "function"
    },
    {
      "inputs": [
        {
          "internalType": "bytes4",
          "name": "interfaceId",
          "type": "bytes4"
        }
      ],
      "name": "supportsInterface",
      "outputs": [
        {
          "internalType": "bool",
          "name": "",
          "type": "bool"
        }
      ],
      "stateMutability": "pure",
      "type": "function"
    },
    {
      "inputs": [
        {
          "internalType": "uint256",
          "name": "tokenId",
          "type": "uint256"
        },
        {
          "internalType": "string",
          "name": "name",
          "type": "string"
        },
        {
          "internalType": "string",
          "name": "description",
          "type": "string"
        },
        {
          "internalType": "string",
          "name": "imageURI",
          "type": "string"
        },
        {
          "components": [
            {
              "internalType": "string",
              "name": "trait_type",
              "type": "string"
            },
            {
              "internalType": "string",
              "name": "value",
              "type": "string"
            },
            {
              "internalType": "string",
              "name": "display_type",
              "type": "string"
            }
          ],
          "internalType": "struct LibInventoryStorage.Attribute[]",
          "name": "attributes",
          "type": "tuple[]"
        }
      ],
      "name": "updateItem",
      "outputs": [],
      "stateMutability": "nonpayable",
      "type": "function"
    },
    {
      "inputs": [
        {
          "internalType": "uint256",
          "name": "tokenId",
          "type": "uint256"
        }
      ],
      "name": "uri",
      "outputs": [
        {
          "internalType": "string",
          "name": "",
          "type": "string"
        }
      ],
      "stateMutability": "view",
      "type": "function"
    }
  ],
  "bytecode": "0x6080604052348015600e575f80fd5b50612ce78061001c5f395ff3fe608060405234801561000f575f80fd5b5060043610610105575f3560e01c80634ba1d6aa1161009e578063a22cb4651161006e578063a22cb46514610233578063ce6019b414610246578063d81d0a1514610267578063e985e9c51461027a578063f242432a146102d4575f80fd5b80634ba1d6aa146101e35780634e1273f4146101f85780637132917114610218578063729dfe401461022b575f80fd5b80631164776e116100d95780631164776e14610187578063156e29f61461019a5780632eb2c2d6146101ad5780633129e773146101c0575f80fd5b8062fdd58e1461010957806301ffc9a71461012f5780630a78803f146101525780630e89341c14610167575b5f80fd5b61011c610117366004611f98565b6102e7565b6040519081526020015b60405180910390f35b61014261013d366004611fd5565b61031d565b6040519015158152602001610126565b61016561016036600461207b565b61036d565b005b61017a610175366004612150565b61056c565b60405161012691906121b4565b61016561019536600461207b565b6105e9565b6101656101a83660046121c6565b610738565b6101656101bb3660046121f6565b610841565b6101d36101ce366004612150565b6109ba565b604051610126949392919061234d565b6101eb610de0565b60405161012691906123a4565b61020b61020636600461246c565b611349565b6040516101269190612510565b610165610226366004612150565b611450565b61020b6115f9565b610165610241366004612522565b61165e565b61025961025436600461255b565b6116f5565b604051610126929190612574565b6101656102753660046125a1565b611851565b61014261028836600461261f565b6001600160a01b039182165f9081527ff7a4cc25de86b3d5d2cd09869dfdab61b73ade0ec7b7207aea84cf74e0a769476020908152604080832093909416825291909152205460ff1690565b6101656102e2366004612650565b6119f7565b6001600160a01b0382165f9081525f80516020612c72833981519152602090815260408083208484529091529020545b92915050565b5f6001600160e01b03198216636cdb3d1360e11b148061034d57506001600160e01b031982166301ffc9a760e01b145b8061031757506001600160e01b031982166303a24d0760e21b1492915050565b61037633611bf3565b61039b5760405162461bcd60e51b8152600401610392906126c2565b60405180910390fd5b806103e85760405162461bcd60e51b815260206004820152601a60248201527f417474726962757465732063616e6e6f7420626520656d7074790000000000006044820152606401610392565b5f8981525f80516020612c5283398151915260205260409020545f80516020612c928339815191529060ff16156104575760405162461bcd60e51b81526020600482015260136024820152724974656d20616c72656164792065786973747360681b6044820152606401610392565b5f8a81526020829052604090208a8155600181016104768a8c83612782565b5060028101610486888a83612782565b5060038101610496868883612782565b505f5b838110156104f457816004018585838181106104b7576104b761283b565b90506020028101906104c9919061284f565b81546001810183555f92835260209092209091600302016104ea82826128af565b5050600101610499565b505f8b8152600183810160209081526040808420805460ff191684179055600286018054938401815584529220018c9055518b907f78d68ba0e8c23b92e7c700d99efed2719520cbd4af845b2c03ae251f9cdf3d5290610557908d908d906129d6565b60405180910390a25050505050505050505050565b5f8181525f80516020612c5283398151915260205260409020546060905f80516020612c928339815191529060ff166105b457505060408051602081019091525f8152919050565b806005016105c184611c82565b6040516020016105d29291906129e9565b604051602081830303815290604052915050919050565b6105f233611bf3565b61060e5760405162461bcd60e51b8152600401610392906126c2565b5f8981525f80516020612c5283398151915260205260409020545f80516020612c928339815191529060ff166106565760405162461bcd60e51b815260040161039290612a6b565b5f8a81526020829052604090208a8155600181016106758a8c83612782565b5060028101610685888a83612782565b5060038101610695868883612782565b506106a3600482015f611ed7565b5f5b8381101561070057816004018585838181106106c3576106c361283b565b90506020028101906106d5919061284f565b81546001810183555f92835260209092209091600302016106f682826128af565b50506001016106a5565b506040518b907f5e58dfa592b09c585a4ab7ef8158d20b1e52e9897f3095dbe1df700853905c2f905f90a25050505050505050505050565b61074133611bf3565b61075d5760405162461bcd60e51b8152600401610392906126c2565b6001600160a01b0383165f9081525f80516020612c7283398151915260209081526040808320858452909152812080545f80516020612c92833981519152928492916107aa908490612aab565b90915550505f83815260018201602052604090205460ff166107f7575f8381526001828101602090815260408320805460ff19168317905560028401805492830181558352909120018390555b82846001600160a01b03167fd9be9c40c7e99dfc974fa3fe3b790af02afd2939b5dedfccb1ba12933eb27a8e8460405161083391815260200190565b60405180910390a350505050565b84831461088b5760405162461bcd60e51b8152602060048201526018602482015277092c8e640c2dcc840c2dadeeadce8e640dad2e6dac2e8c6d60431b6044820152606401610392565b5f5b858110156108db576108d389898989858181106108ac576108ac61283b565b905060200201358888868181106108c5576108c561283b565b9050602002013587876119f7565b60010161088d565b50863b1561095f5760405163bc197c8160e01b81526001600160a01b0388169063bc197c819061091d9033908c908b908b908b908b908b908b90600401612aee565b6020604051808303815f875af1158015610939573d5f803e3d5ffd5b505050506040513d601f19601f8201168201806040525081019061095d9190612b51565b505b866001600160a01b0316886001600160a01b03167f7c9d74fc6f4301b51a77f302f08e20812a5e96b0575d4427ba96d6c37c9ca30b888888886040516109a89493929190612b6c565b60405180910390a35050505050505050565b5f8181525f80516020612c5283398151915260205260409020546060908190819081905f80516020612c928339815191529060ff16610a0b5760405162461bcd60e51b815260040161039290612a6b565b5f8681526020829052604090206001810180546002830190600384019060048501908490610a38906126fe565b80601f0160208091040260200160405190810160405280929190818152602001828054610a64906126fe565b8015610aaf5780601f10610a8657610100808354040283529160200191610aaf565b820191905f5260205f20905b815481529060010190602001808311610a9257829003601f168201915b50505050509350828054610ac2906126fe565b80601f0160208091040260200160405190810160405280929190818152602001828054610aee906126fe565b8015610b395780601f10610b1057610100808354040283529160200191610b39565b820191905f5260205f20905b815481529060010190602001808311610b1c57829003601f168201915b50505050509250818054610b4c906126fe565b80601f0160208091040260200160405190810160405280929190818152602001828054610b78906126fe565b8015610bc35780601f10610b9a57610100808354040283529160200191610bc3565b820191905f5260205f20905b815481529060010190602001808311610ba657829003601f168201915b5050505050915080805480602002602001604051908101604052809291908181526020015f905b82821015610dc9578382905f5260205f2090600302016040518060600160405290815f82018054610c1a906126fe565b80601f0160208091040260200160405190810160405280929190818152602001828054610c46906126fe565b8015610c915780601f10610c6857610100808354040283529160200191610c91565b820191905f5260205f20905b815481529060010190602001808311610c7457829003601f168201915b50505050508152602001600182018054610caa906126fe565b80601f0160208091040260200160405190810160405280929190818152602001828054610cd6906126fe565b8015610d215780601f10610cf857610100808354040283529160200191610d21565b820191905f5260205f20905b815481529060010190602001808311610d0457829003601f168201915b50505050508152602001600282018054610d3a906126fe565b80601f0160208091040260200160405190810160405280929190818152602001828054610d66906126fe565b8015610db15780601f10610d8857610100808354040283529160200191610db1565b820191905f5260205f20905b815481529060010190602001808311610d9457829003601f168201915b50505050508152505081526020019060010190610bea565b505050509050955095509550955050509193509193565b7ff7a4cc25de86b3d5d2cd09869dfdab61b73ade0ec7b7207aea84cf74e0a76945546060905f80516020612c9283398151915290806001600160401b03811115610e2c57610e2c6126ea565b604051908082528060200260200182016040528015610e8e57816020015b610e7b6040518060a001604052805f8152602001606081526020016060815260200160608152602001606081525090565b815260200190600190039081610e4a5790505b5092505f5b81811015611343575f836002018281548110610eb157610eb161283b565b5f9182526020808320909101548083529086905260408220600481015491935091816001600160401b03811115610eea57610eea6126ea565b604051908082528060200260200182016040528015610f3f57816020015b610f2c60405180606001604052806060815260200160608152602001606081525090565b815260200190600190039081610f085790505b5090505f5b8281101561114c57836004018181548110610f6157610f6161283b565b905f5260205f2090600302016040518060600160405290815f82018054610f87906126fe565b80601f0160208091040260200160405190810160405280929190818152602001828054610fb3906126fe565b8015610ffe5780601f10610fd557610100808354040283529160200191610ffe565b820191905f5260205f20905b815481529060010190602001808311610fe157829003601f168201915b50505050508152602001600182018054611017906126fe565b80601f0160208091040260200160405190810160405280929190818152602001828054611043906126fe565b801561108e5780601f106110655761010080835404028352916020019161108e565b820191905f5260205f20905b81548152906001019060200180831161107157829003601f168201915b505050505081526020016002820180546110a7906126fe565b80601f01602080910402602001604051908101604052809291908181526020018280546110d3906126fe565b801561111e5780601f106110f55761010080835404028352916020019161111e565b820191905f5260205f20905b81548152906001019060200180831161110157829003601f168201915b5050505050815250508282815181106111395761113961283b565b6020908102919091010152600101610f44565b506040518060a00160405280845f01548152602001846001018054611170906126fe565b80601f016020809104026020016040519081016040528092919081815260200182805461119c906126fe565b80156111e75780601f106111be576101008083540402835291602001916111e7565b820191905f5260205f20905b8154815290600101906020018083116111ca57829003601f168201915b50505050508152602001846002018054611200906126fe565b80601f016020809104026020016040519081016040528092919081815260200182805461122c906126fe565b80156112775780601f1061124e57610100808354040283529160200191611277565b820191905f5260205f20905b81548152906001019060200180831161125a57829003601f168201915b50505050508152602001846003018054611290906126fe565b80601f01602080910402602001604051908101604052809291908181526020018280546112bc906126fe565b80156113075780601f106112de57610100808354040283529160200191611307565b820191905f5260205f20905b8154815290600101906020018083116112ea57829003601f168201915b50505050508152602001828152508886815181106113275761132761283b565b6020026020010181905250505050508080600101915050610e93565b50505090565b606083821461138c5760405162461bcd60e51b815260206004820152600f60248201526e098cadccee8d040dad2e6dac2e8c6d608b1b6044820152606401610392565b836001600160401b038111156113a4576113a46126ea565b6040519080825280602002602001820160405280156113cd578160200160208202803683370190505b5090505f5b84811015611447576114228686838181106113ef576113ef61283b565b9050602002016020810190611404919061255b565b8585848181106114165761141661283b565b905060200201356102e7565b8282815181106114345761143461283b565b60209081029190910101526001016113d2565b50949350505050565b61145933611bf3565b6114755760405162461bcd60e51b8152600401610392906126c2565b5f8181525f80516020612c5283398151915260205260409020545f80516020612c928339815191529060ff166114bd5760405162461bcd60e51b815260040161039290612a6b565b5f828152602082905260408120818155906114db6001830182611ef8565b6114e8600283015f611ef8565b6114f5600383015f611ef8565b611502600483015f611ed7565b50505f8281526001820160205260408120805460ff191690555b60028201548110156115ca578282600201828154811061153e5761153e61283b565b905f5260205f200154036115c25760028201805461155e90600190612b92565b8154811061156e5761156e61283b565b905f5260205f20015482600201828154811061158c5761158c61283b565b5f91825260209091200155600282018054806115aa576115aa612ba5565b600190038181905f5260205f20015f905590556115ca565b60010161151c565b5060405182907fa54eda4149a0fb9258911733973ecf1f6762357ed371fc6d1e63123bbce23bed905f90a25050565b60605f80516020612c9283398151915260020180548060200260200160405190810160405280929190818152602001828054801561165457602002820191905f5260205f20905b815481526020019060010190808311611640575b5050505050905090565b335f8181527ff7a4cc25de86b3d5d2cd09869dfdab61b73ade0ec7b7207aea84cf74e0a76947602090815260408083206001600160a01b03871680855290835292819020805460ff1916861515908117909155815190815290515f80516020612c9283398151915294927f17307eab39ab6107e8899845ad3d59bd9653f200f220920489ca2b5937696c31928290030190a3505050565b7ff7a4cc25de86b3d5d2cd09869dfdab61b73ade0ec7b7207aea84cf74e0a769455460609081905f80516020612c9283398151915290806001600160401b03811115611743576117436126ea565b60405190808252806020026020018201604052801561176c578160200160208202803683370190505b509350806001600160401b03811115611787576117876126ea565b6040519080825280602002602001820160405280156117b0578160200160208202803683370190505b5092505f5b81811015611849575f8360020182815481106117d3576117d361283b565b905f5260205f2001549050808683815181106117f1576117f161283b565b6020908102919091018101919091526001600160a01b0388165f9081526003860182526040808220848352909252205485518690849081106118355761183561283b565b6020908102919091010152506001016117b5565b505050915091565b61185a33611bf3565b6118765760405162461bcd60e51b8152600401610392906126c2565b8281146118c05760405162461bcd60e51b8152602060048201526018602482015277092c8e640c2dcc840c2dadeeadce8e640dad2e6dac2e8c6d60431b6044820152606401610392565b5f5b838110156119a8575f8585838181106118dd576118dd61283b565b9050602002013590505f8484848181106118f9576118f961283b565b9050602002013590505f6119175f80516020612c9283398151915290565b6001600160a01b038a165f9081526003820160209081526040808320878452909152812080549293508492909190611950908490612aab565b90915550505f83815260018201602052604090205460ff1661199d575f8381526001828101602090815260408320805460ff19168317905560028401805492830181558352909120018390555b5050506001016118c2565b50846001600160a01b03167f23519238b590c499a2abcf44a33b5f431ac6ca51c22fad26bc2c3d08b97eaa21858585856040516119e89493929190612b6c565b60405180910390a25050505050565b6001600160a01b038616611a4d5760405162461bcd60e51b815260206004820152601b60248201527f46726f6d20616464726573732063616e6e6f74206265207a65726f00000000006044820152606401610392565b6001600160a01b038516611aa35760405162461bcd60e51b815260206004820152601960248201527f546f20616464726573732063616e6e6f74206265207a65726f000000000000006044820152606401610392565b5f8311611af25760405162461bcd60e51b815260206004820152601c60248201527f56616c7565206d7573742062652067726561746572207468616e2030000000006044820152606401610392565b611afe86868686611d86565b843b15611beb5760405163f23a6e6160e01b81525f906001600160a01b0387169063f23a6e6190611b3d9033908b908a908a908a908a90600401612bb9565b6020604051808303815f875af1158015611b59573d5f803e3d5ffd5b505050506040513d601f19601f82011682018060405250810190611b7d9190612b51565b90506001600160e01b0319811663f23a6e6160e01b14611be95760405162461bcd60e51b815260206004820152602160248201527f455243313135353a2052656365697665722072656a656374656420746f6b656e6044820152607360f81b6064820152608401610392565b505b505050505050565b5f611c257fc8fcad8db84d3cc18b4c41d551ea0ee66dd599cde068d998e57d5e09332c131f546001600160a01b031690565b6001600160a01b0316826001600160a01b031603611c4557506001919050565b506001600160a01b03165f9081527f74280a4b4c55f9103e616849087d6b766bc3336a420e6c0dacf24ec2d7d7ef9c602052604090205460ff1690565b6060815f03611ca85750506040805180820190915260018152600360fc1b602082015290565b815f5b8115611cd15780611cbb81612bff565b9150611cca9050600a83612c2b565b9150611cab565b5f816001600160401b03811115611cea57611cea6126ea565b6040519080825280601f01601f191660200182016040528015611d14576020820181803683370190505b5090505b8415611d7e57611d29600183612b92565b9150611d36600a86612c3e565b611d41906030612aab565b60f81b818381518110611d5657611d5661283b565b60200101906001600160f81b03191690815f1a905350611d77600a86612c2b565b9450611d18565b949350505050565b6001600160a01b0384165f9081525f80516020612c7283398151915260209081526040808320858452909152902054811115611dfb5760405162461bcd60e51b8152602060048201526014602482015273496e73756666696369656e742062616c616e636560601b6044820152606401610392565b6001600160a01b0384165f9081525f80516020612c728339815191526020908152604080832085845290915281208054839290611e39908490612b92565b90915550506001600160a01b0383165f9081525f80516020612c728339815191526020908152604080832085845290915281208054839290611e7c908490612aab565b9250508190555081836001600160a01b0316856001600160a01b03167f51e866c8533d4385f872db5ecbbc78914e718cec9fa5481105c30369d8c22e7f84604051611ec991815260200190565b60405180910390a450505050565b5080545f8255600302905f5260205f2090810190611ef59190611f2f565b50565b508054611f04906126fe565b5f825580601f10611f13575050565b601f0160209004905f5260205f2090810190611ef59190611f69565b80821115611f65575f611f428282611ef8565b611f4f600183015f611ef8565b611f5c600283015f611ef8565b50600301611f2f565b5090565b5b80821115611f65575f8155600101611f6a565b80356001600160a01b0381168114611f93575f80fd5b919050565b5f8060408385031215611fa9575f80fd5b611fb283611f7d565b946020939093013593505050565b6001600160e01b031981168114611ef5575f80fd5b5f60208284031215611fe5575f80fd5b8135611ff081611fc0565b9392505050565b5f8083601f840112612007575f80fd5b5081356001600160401b0381111561201d575f80fd5b602083019150836020828501011115612034575f80fd5b9250929050565b5f8083601f84011261204b575f80fd5b5081356001600160401b03811115612061575f80fd5b6020830191508360208260051b8501011115612034575f80fd5b5f805f805f805f805f60a08a8c031215612093575f80fd5b8935985060208a01356001600160401b038111156120af575f80fd5b6120bb8c828d01611ff7565b90995097505060408a01356001600160401b038111156120d9575f80fd5b6120e58c828d01611ff7565b90975095505060608a01356001600160401b03811115612103575f80fd5b61210f8c828d01611ff7565b90955093505060808a01356001600160401b0381111561212d575f80fd5b6121398c828d0161203b565b915080935050809150509295985092959850929598565b5f60208284031215612160575f80fd5b5035919050565b5f5b83811015612181578181015183820152602001612169565b50505f910152565b5f81518084526121a0816020860160208601612167565b601f01601f19169290920160200192915050565b602081525f611ff06020830184612189565b5f805f606084860312156121d8575f80fd5b6121e184611f7d565b95602085013595506040909401359392505050565b5f805f805f805f8060a0898b03121561220d575f80fd5b61221689611f7d565b975061222460208a01611f7d565b965060408901356001600160401b0381111561223e575f80fd5b61224a8b828c0161203b565b90975095505060608901356001600160401b03811115612268575f80fd5b6122748b828c0161203b565b90955093505060808901356001600160401b03811115612292575f80fd5b61229e8b828c01611ff7565b999c989b5096995094979396929594505050565b5f82825180855260208501945060208160051b830101602085015f5b8381101561234157601f1985840301885281518051606085526122f46060860182612189565b90506020820151858203602087015261230d8282612189565b9150506040820151915084810360408601526123298183612189565b60209a8b019a909550939093019250506001016122ce565b50909695505050505050565b608081525f61235f6080830187612189565b82810360208401526123718187612189565b905082810360408401526123858186612189565b9050828103606084015261239981856122b2565b979650505050505050565b5f602082016020835280845180835260408501915060408160051b8601019250602086015f5b8281101561246057603f19878603018452815180518652602081015160a060208801526123fa60a0880182612189565b9050604082015187820360408901526124138282612189565b9150506060820151878203606089015261242d8282612189565b91505060808201519150868103608088015261244981836122b2565b9650505060209384019391909101906001016123ca565b50929695505050505050565b5f805f806040858703121561247f575f80fd5b84356001600160401b03811115612494575f80fd5b6124a08782880161203b565b90955093505060208501356001600160401b038111156124be575f80fd5b6124ca8782880161203b565b95989497509550505050565b5f8151808452602084019350602083015f5b828110156125065781518652602095860195909101906001016124e8565b5093949350505050565b602081525f611ff060208301846124d6565b5f8060408385031215612533575f80fd5b61253c83611f7d565b915060208301358015158114612550575f80fd5b809150509250929050565b5f6020828403121561256b575f80fd5b611ff082611f7d565b604081525f61258660408301856124d6565b828103602084015261259881856124d6565b95945050505050565b5f805f805f606086880312156125b5575f80fd5b6125be86611f7d565b945060208601356001600160401b038111156125d8575f80fd5b6125e48882890161203b565b90955093505060408601356001600160401b03811115612602575f80fd5b61260e8882890161203b565b969995985093965092949392505050565b5f8060408385031215612630575f80fd5b61263983611f7d565b915061264760208401611f7d565b90509250929050565b5f805f805f8060a08789031215612665575f80fd5b61266e87611f7d565b955061267c60208801611f7d565b9450604087013593506060870135925060808701356001600160401b038111156126a4575f80fd5b6126b089828a01611ff7565b979a9699509497509295939492505050565b6020808252600e908201526d139bdd08185d5d1a1bdc9a5e995960921b604082015260600190565b634e487b7160e01b5f52604160045260245ffd5b600181811c9082168061271257607f821691505b60208210810361273057634e487b7160e01b5f52602260045260245ffd5b50919050565b601f82111561277d57805f5260205f20601f840160051c8101602085101561275b5750805b601f840160051c820191505b8181101561277a575f8155600101612767565b50505b505050565b6001600160401b03831115612799576127996126ea565b6127ad836127a783546126fe565b83612736565b5f601f8411600181146127de575f85156127c75750838201355b5f19600387901b1c1916600186901b17835561277a565b5f83815260208120601f198716915b8281101561280d57868501358255602094850194600190920191016127ed565b5086821015612829575f1960f88860031b161c19848701351681555b505060018560011b0183555050505050565b634e487b7160e01b5f52603260045260245ffd5b5f8235605e19833603018112612863575f80fd5b9190910192915050565b5f808335601e19843603018112612882575f80fd5b8301803591506001600160401b0382111561289b575f80fd5b602001915036819003821315612034575f80fd5b6128b9828361286d565b6001600160401b038111156128d0576128d06126ea565b6128e4816128de85546126fe565b85612736565b5f601f821160018114612915575f83156128fe5750838201355b5f19600385901b1c1916600184901b17855561296c565b5f85815260208120601f198516915b828110156129445786850135825560209485019460019092019101612924565b5084821015612960575f1960f88660031b161c19848701351681555b505060018360011b0185555b5050505061297d602083018361286d565b61298b818360018601612782565b505061299a604083018361286d565b6129a8818360028601612782565b50505050565b81835281816020850137505f828201602090810191909152601f909101601f19169091010190565b602081525f611d7e6020830184866129ae565b5f8084546129f6816126fe565b600182168015612a0d5760018114612a2257612a4f565b60ff1983168652811515820286019350612a4f565b875f5260205f205f5b83811015612a4757815488820152600190910190602001612a2b565b505081860193505b5050508351612a62818360208801612167565b01949350505050565b602080825260129082015271125d195b48191bd95cdb89dd08195e1a5cdd60721b604082015260600190565b634e487b7160e01b5f52601160045260245ffd5b8082018082111561031757610317612a97565b8183525f6001600160fb1b03831115612ad5575f80fd5b8260051b80836020870137939093016020019392505050565b6001600160a01b0389811682528816602082015260a0604082018190525f90612b1a908301888a612abe565b8281036060840152612b2d818789612abe565b90508281036080840152612b428185876129ae565b9b9a5050505050505050505050565b5f60208284031215612b61575f80fd5b8151611ff081611fc0565b604081525f612b7f604083018688612abe565b8281036020840152612399818587612abe565b8181038181111561031757610317612a97565b634e487b7160e01b5f52603160045260245ffd5b6001600160a01b03878116825286166020820152604081018590526060810184905260a0608082018190525f90612bf390830184866129ae565b98975050505050505050565b5f60018201612c1057612c10612a97565b5060010190565b634e487b7160e01b5f52601260045260245ffd5b5f82612c3957612c39612c17565b500490565b5f82612c4c57612c4c612c17565b50069056fef7a4cc25de86b3d5d2cd09869dfdab61b73ade0ec7b7207aea84cf74e0a76944f7a4cc25de86b3d5d2cd09869dfdab61b73ade0ec7b7207aea84cf74e0a76946f7a4cc25de86b3d5d2cd09869dfdab61b73ade0ec7b7207aea84cf74e0a76943a2646970667358221220e58af978251f58126e86f04510809ae92b97333879af851b9c4f0fef857db3da64736f6c634300081a0033",
  "linkReferences": {},
  "deployedLinkReferences": {}
}