{
  "_format": "hh-sol-artifact-1",
  "contractName": "PassportFacet",
  "sourceName": "contracts/facets/PassportFacet.sol",
  "abi": [
    {
      "anonymous": false,
      "inputs": [
        {
          "indexed": true,
          "internalType": "address",
          "name": "owner",
          "type": "address"
        },
        {
          "indexed": true,
          "internalType": "address",
          "name": "approved",
          "type": "address"
        },
        {
          "indexed": true,
          "internalType": "uint256",
          "name": "tokenId",
          "type": "uint256"
        }
      ],
      "name": "Approval",
      "type": "event"
    },
    {
      "anonymous": false,
      "inputs": [
        {
          "indexed": true,
          "internalType": "address",
          "name": "owner",
          "type": "address"
        },
        {
          "indexed": true,
          "internalType": "address",
          "name": "operator",
          "type": "address"
        },
        {
          "indexed": false,
          "internalType": "bool",
          "name": "approved",
          "type": "bool"
        }
      ],
      "name": "ApprovalForAll",
      "type": "event"
    },
    {
      "anonymous": false,
      "inputs": [
        {
          "indexed": false,
          "internalType": "string",
          "name": "uri",
          "type": "string"
        }
      ],
      "name": "BaseTokenURISet",
      "type": "event"
    },
    {
      "anonymous": false,
      "inputs": [],
      "name": "GlobalAttributesSet",
      "type": "event"
    },
    {
      "anonymous": false,
      "inputs": [],
      "name": "GlobalUserMetadataTemplateSet",
      "type": "event"
    },
    {
      "anonymous": false,
      "inputs": [
        {
          "indexed": true,
          "internalType": "address",
          "name": "from",
          "type": "address"
        },
        {
          "indexed": true,
          "internalType": "address",
          "name": "to",
          "type": "address"
        },
        {
          "indexed": true,
          "internalType": "uint256",
          "name": "tokenId",
          "type": "uint256"
        },
        {
          "indexed": false,
          "internalType": "uint256",
          "name": "amount",
          "type": "uint256"
        }
      ],
      "name": "ItemTransferred",
      "type": "event"
    },
    {
      "anonymous": false,
      "inputs": [
        {
          "indexed": true,
          "internalType": "address",
          "name": "owner",
          "type": "address"
        },
        {
          "indexed": true,
          "internalType": "address",
          "name": "approved",
          "type": "address"
        },
        {
          "indexed": true,
          "internalType": "uint256",
          "name": "tokenId",
          "type": "uint256"
        }
      ],
      "name": "PassportApproved",
      "type": "event"
    },
    {
      "anonymous": false,
      "inputs": [
        {
          "indexed": true,
          "internalType": "uint256",
          "name": "tokenId",
          "type": "uint256"
        }
      ],
      "name": "PassportAttributesUpdated",
      "type": "event"
    },
    {
      "anonymous": false,
      "inputs": [
        {
          "indexed": true,
          "internalType": "address",
          "name": "user",
          "type": "address"
        },
        {
          "indexed": true,
          "internalType": "uint256",
          "name": "tokenId",
          "type": "uint256"
        }
      ],
      "name": "PassportBurned",
      "type": "event"
    },
    {
      "anonymous": false,
      "inputs": [
        {
          "indexed": true,
          "internalType": "address",
          "name": "user",
          "type": "address"
        },
        {
          "indexed": true,
          "internalType": "uint256",
          "name": "tokenId",
          "type": "uint256"
        }
      ],
      "name": "PassportMinted",
      "type": "event"
    },
    {
      "anonymous": false,
      "inputs": [
        {
          "indexed": true,
          "internalType": "address",
          "name": "user",
          "type": "address"
        },
        {
          "indexed": false,
          "internalType": "uint256[]",
          "name": "tokenIds",
          "type": "uint256[]"
        }
      ],
      "name": "PassportMintedBatch",
      "type": "event"
    },
    {
      "anonymous": false,
      "inputs": [
        {
          "indexed": true,
          "internalType": "address",
          "name": "from",
          "type": "address"
        },
        {
          "indexed": true,
          "internalType": "address",
          "name": "to",
          "type": "address"
        },
        {
          "indexed": true,
          "internalType": "uint256",
          "name": "tokenId",
          "type": "uint256"
        }
      ],
      "name": "PassportTransferred",
      "type": "event"
    },
    {
      "anonymous": false,
      "inputs": [
        {
          "indexed": true,
          "internalType": "address",
          "name": "from",
          "type": "address"
        },
        {
          "indexed": true,
          "internalType": "address",
          "name": "to",
          "type": "address"
        },
        {
          "indexed": false,
          "internalType": "uint256[]",
          "name": "tokenIds",
          "type": "uint256[]"
        }
      ],
      "name": "PassportTransferredBatch",
      "type": "event"
    },
    {
      "anonymous": false,
      "inputs": [
        {
          "indexed": true,
          "internalType": "address",
          "name": "from",
          "type": "address"
        },
        {
          "indexed": true,
          "internalType": "address",
          "name": "to",
          "type": "address"
        },
        {
          "indexed": true,
          "internalType": "uint256",
          "name": "tokenId",
          "type": "uint256"
        }
      ],
      "name": "Transfer",
      "type": "event"
    },
    {
      "anonymous": false,
      "inputs": [
        {
          "indexed": true,
          "internalType": "uint256",
          "name": "tokenId",
          "type": "uint256"
        }
      ],
      "name": "UserMetadataUpdated",
      "type": "event"
    },
    {
      "inputs": [
        {
          "internalType": "address",
          "name": "to",
          "type": "address"
        },
        {
          "internalType": "uint256",
          "name": "tokenId",
          "type": "uint256"
        }
      ],
      "name": "approve",
      "outputs": [],
      "stateMutability": "nonpayable",
      "type": "function"
    },
    {
      "inputs": [
        {
          "internalType": "address",
          "name": "owner",
          "type": "address"
        }
      ],
      "name": "balanceOf",
      "outputs": [
        {
          "internalType": "uint256",
          "name": "",
          "type": "uint256"
        }
      ],
      "stateMutability": "view",
      "type": "function"
    },
    {
      "inputs": [
        {
          "internalType": "uint256",
          "name": "tokenId",
          "type": "uint256"
        }
      ],
      "name": "burn",
      "outputs": [],
      "stateMutability": "nonpayable",
      "type": "function"
    },
    {
      "inputs": [],
      "name": "getAllPassportHolders",
      "outputs": [
        {
          "internalType": "address[]",
          "name": "",
          "type": "address[]"
        }
      ],
      "stateMutability": "view",
      "type": "function"
    },
    {
      "inputs": [],
      "name": "getAllPassports",
      "outputs": [
        {
          "internalType": "uint256[]",
          "name": "tokenIds",
          "type": "uint256[]"
        }
      ],
      "stateMutability": "view",
      "type": "function"
    },
    {
      "inputs": [
        {
          "internalType": "uint256",
          "name": "tokenId",
          "type": "uint256"
        }
      ],
      "name": "getApproved",
      "outputs": [
        {
          "internalType": "address",
          "name": "",
          "type": "address"
        }
      ],
      "stateMutability": "view",
      "type": "function"
    },
    {
      "inputs": [],
      "name": "getGlobalAttributeTemplate",
      "outputs": [
        {
          "components": [
            {
              "internalType": "string",
              "name": "trait_type",
              "type": "string"
            },
            {
              "internalType": "string",
              "name": "value",
              "type": "string"
            },
            {
              "internalType": "string",
              "name": "display_type",
              "type": "string"
            },
            {
              "internalType": "string",
              "name": "uri",
              "type": "string"
            }
          ],
          "internalType": "struct LibPassportStorage.Attribute[]",
          "name": "",
          "type": "tuple[]"
        }
      ],
      "stateMutability": "view",
      "type": "function"
    },
    {
      "inputs": [],
      "name": "getGlobalUserMetadataTemplate",
      "outputs": [
        {
          "components": [
            {
              "internalType": "string",
              "name": "trait_type",
              "type": "string"
            },
            {
              "internalType": "string",
              "name": "value",
              "type": "string"
            },
            {
              "internalType": "string",
              "name": "uri",
              "type": "string"
            }
          ],
          "internalType": "struct LibPassportStorage.MetadataField[]",
          "name": "",
          "type": "tuple[]"
        }
      ],
      "stateMutability": "view",
      "type": "function"
    },
    {
      "inputs": [
        {
          "internalType": "uint256",
          "name": "tokenId",
          "type": "uint256"
        }
      ],
      "name": "getPassportAttributes",
      "outputs": [
        {
          "components": [
            {
              "internalType": "string",
              "name": "trait_type",
              "type": "string"
            },
            {
              "internalType": "string",
              "name": "value",
              "type": "string"
            },
            {
              "internalType": "string",
              "name": "display_type",
              "type": "string"
            },
            {
              "internalType": "string",
              "name": "uri",
              "type": "string"
            }
          ],
          "internalType": "struct LibPassportStorage.Attribute[]",
          "name": "",
          "type": "tuple[]"
        }
      ],
      "stateMutability": "view",
      "type": "function"
    },
    {
      "inputs": [
        {
          "internalType": "address",
          "name": "user",
          "type": "address"
        }
      ],
      "name": "getTokenIdForWallet",
      "outputs": [
        {
          "internalType": "uint256",
          "name": "",
          "type": "uint256"
        }
      ],
      "stateMutability": "view",
      "type": "function"
    },
    {
      "inputs": [
        {
          "internalType": "uint256",
          "name": "tokenId",
          "type": "uint256"
        }
      ],
      "name": "getUserMetadata",
      "outputs": [
        {
          "components": [
            {
              "internalType": "string",
              "name": "trait_type",
              "type": "string"
            },
            {
              "internalType": "string",
              "name": "value",
              "type": "string"
            },
            {
              "internalType": "string",
              "name": "uri",
              "type": "string"
            }
          ],
          "internalType": "struct LibPassportStorage.MetadataField[]",
          "name": "",
          "type": "tuple[]"
        }
      ],
      "stateMutability": "view",
      "type": "function"
    },
    {
      "inputs": [
        {
          "internalType": "address",
          "name": "owner",
          "type": "address"
        },
        {
          "internalType": "address",
          "name": "operator",
          "type": "address"
        }
      ],
      "name": "isApprovedForAll",
      "outputs": [
        {
          "internalType": "bool",
          "name": "",
          "type": "bool"
        }
      ],
      "stateMutability": "view",
      "type": "function"
    },
    {
      "inputs": [],
      "name": "mint",
      "outputs": [],
      "stateMutability": "nonpayable",
      "type": "function"
    },
    {
      "inputs": [],
      "name": "name",
      "outputs": [
        {
          "internalType": "string",
          "name": "",
          "type": "string"
        }
      ],
      "stateMutability": "view",
      "type": "function"
    },
    {
      "inputs": [
        {
          "internalType": "uint256",
          "name": "tokenId",
          "type": "uint256"
        }
      ],
      "name": "ownerOf",
      "outputs": [
        {
          "internalType": "address",
          "name": "",
          "type": "address"
        }
      ],
      "stateMutability": "view",
      "type": "function"
    },
    {
      "inputs": [
        {
          "internalType": "address",
          "name": "from",
          "type": "address"
        },
        {
          "internalType": "address",
          "name": "to",
          "type": "address"
        },
        {
          "internalType": "uint256[]",
          "name": "tokenIds",
          "type": "uint256[]"
        }
      ],
      "name": "safeBatchTransferFrom",
      "outputs": [],
      "stateMutability": "nonpayable",
      "type": "function"
    },
    {
      "inputs": [
        {
          "internalType": "address",
          "name": "from",
          "type": "address"
        },
        {
          "internalType": "address",
          "name": "to",
          "type": "address"
        },
        {
          "internalType": "uint256",
          "name": "tokenId",
          "type": "uint256"
        }
      ],
      "name": "safeTransferFrom",
      "outputs": [],
      "stateMutability": "nonpayable",
      "type": "function"
    },
    {
      "inputs": [
        {
          "internalType": "address",
          "name": "from",
          "type": "address"
        },
        {
          "internalType": "address",
          "name": "to",
          "type": "address"
        },
        {
          "internalType": "uint256",
          "name": "tokenId",
          "type": "uint256"
        },
        {
          "internalType": "bytes",
          "name": "data",
          "type": "bytes"
        }
      ],
      "name": "safeTransferFrom",
      "outputs": [],
      "stateMutability": "nonpayable",
      "type": "function"
    },
    {
      "inputs": [
        {
          "internalType": "address",
          "name": "operator",
          "type": "address"
        },
        {
          "internalType": "bool",
          "name": "approved",
          "type": "bool"
        }
      ],
      "name": "setApprovalForAll",
      "outputs": [],
      "stateMutability": "nonpayable",
      "type": "function"
    },
    {
      "inputs": [
        {
          "internalType": "string",
          "name": "uri",
          "type": "string"
        }
      ],
      "name": "setBaseTokenURI",
      "outputs": [],
      "stateMutability": "nonpayable",
      "type": "function"
    },
    {
      "inputs": [
        {
          "internalType": "string[]",
          "name": "trait_types",
          "type": "string[]"
        },
        {
          "internalType": "string[]",
          "name": "values",
          "type": "string[]"
        },
        {
          "internalType": "string[]",
          "name": "display_types",
          "type": "string[]"
        },
        {
          "internalType": "string[]",
          "name": "uris",
          "type": "string[]"
        }
      ],
      "name": "setGlobalAttributes",
      "outputs": [],
      "stateMutability": "nonpayable",
      "type": "function"
    },
    {
      "inputs": [
        {
          "internalType": "string[]",
          "name": "trait_types",
          "type": "string[]"
        },
        {
          "internalType": "string[]",
          "name": "values",
          "type": "string[]"
        },
        {
          "internalType": "string[]",
          "name": "uris",
          "type": "string[]"
        }
      ],
      "name": "setGlobalUserMetadataTemplate",
      "outputs": [],
      "stateMutability": "nonpayable",
      "type": "function"
    },
    {
      "inputs": [
        {
          "internalType": "bytes4",
          "name": "interfaceId",
          "type": "bytes4"
        }
      ],
      "name": "supportsInterface",
      "outputs": [
        {
          "internalType": "bool",
          "name": "",
          "type": "bool"
        }
      ],
      "stateMutability": "pure",
      "type": "function"
    },
    {
      "inputs": [],
      "name": "symbol",
      "outputs": [
        {
          "internalType": "string",
          "name": "",
          "type": "string"
        }
      ],
      "stateMutability": "view",
      "type": "function"
    },
    {
      "inputs": [
        {
          "internalType": "uint256",
          "name": "tokenId",
          "type": "uint256"
        }
      ],
      "name": "tokenURI",
      "outputs": [
        {
          "internalType": "string",
          "name": "",
          "type": "string"
        }
      ],
      "stateMutability": "view",
      "type": "function"
    },
    {
      "inputs": [],
      "name": "totalSupply",
      "outputs": [
        {
          "internalType": "uint256",
          "name": "",
          "type": "uint256"
        }
      ],
      "stateMutability": "view",
      "type": "function"
    },
    {
      "inputs": [
        {
          "internalType": "address",
          "name": "from",
          "type": "address"
        },
        {
          "internalType": "address",
          "name": "to",
          "type": "address"
        },
        {
          "internalType": "uint256",
          "name": "tokenId",
          "type": "uint256"
        }
      ],
      "name": "transferFrom",
      "outputs": [],
      "stateMutability": "nonpayable",
      "type": "function"
    },
    {
      "inputs": [
        {
          "internalType": "uint256",
          "name": "tokenId",
          "type": "uint256"
        },
        {
          "components": [
            {
              "internalType": "string",
              "name": "trait_type",
              "type": "string"
            },
            {
              "internalType": "string",
              "name": "value",
              "type": "string"
            },
            {
              "internalType": "string",
              "name": "display_type",
              "type": "string"
            },
            {
              "internalType": "string",
              "name": "uri",
              "type": "string"
            }
          ],
          "internalType": "struct LibPassportStorage.Attribute[]",
          "name": "attrs",
          "type": "tuple[]"
        }
      ],
      "name": "updatePassportAttributes",
      "outputs": [],
      "stateMutability": "nonpayable",
      "type": "function"
    },
    {
      "inputs": [
        {
          "internalType": "uint256",
          "name": "tokenId",
          "type": "uint256"
        },
        {
          "components": [
            {
              "internalType": "string",
              "name": "trait_type",
              "type": "string"
            },
            {
              "internalType": "string",
              "name": "value",
              "type": "string"
            },
            {
              "internalType": "string",
              "name": "uri",
              "type": "string"
            }
          ],
          "internalType": "struct LibPassportStorage.MetadataField[]",
          "name": "fields",
          "type": "tuple[]"
        }
      ],
      "name": "updateUserMetadata",
      "outputs": [],
      "stateMutability": "nonpayable",
      "type": "function"
    }
  ],
  "bytecode": "0x6080604052348015600e575f80fd5b50613f388061001c5f395ff3fe608060405234801561000f575f80fd5b50600436106101c6575f3560e01c806342966c68116100fe57806395d89b411161009e578063c87b56dd1161006e578063c87b56dd146103c9578063cf86ea39146103dc578063d69bcfea146103ef578063e985e9c514610404575f80fd5b806395d89b41146103885780639c48774f14610390578063a22cb465146103a3578063b88d4fde146103b6575f80fd5b80636949a99f116100d95780636949a99f1461034557806370a082311461035857806374513e851461036b578063930f6fe714610373575f80fd5b806342966c68146102ff578063619dd60b146103125780636352211e14610332575f80fd5b80631249c58b1161016957806323b872dd1161014457806323b872dd146102b157806330176e13146102c457806330433a20146102d757806342842e0e146102ec575f80fd5b80631249c58b1461028057806318160ddd14610288578063200125d21461029e575f80fd5b806306fdde03116101a457806306fdde031461021a578063081812fc1461022f578063095ea7b31461025a57806310ebab4b1461026d575f80fd5b80630193fd91146101ca57806301ffc9a7146101df578063034601ec14610207575b5f80fd5b6101dd6101d83660046130fd565b610417565b005b6101f26101ed366004613159565b610559565b60405190151581526020015b60405180910390f35b6101dd610215366004613196565b61058f565b61022261067f565b6040516101fe919061323f565b61024261023d366004613251565b610715565b6040516001600160a01b0390911681526020016101fe565b6101dd610268366004613268565b61073a565b6101dd61027b366004613290565b610884565b6101dd610ae0565b610290610dc0565b6040519081526020016101fe565b6101dd6102ac36600461332c565b610dd2565b6101dd6102bf3660046133f6565b6110ad565b6101dd6102d236600461346d565b6110e3565b6102df61115f565b6040516101fe91906134ab565b6101dd6102fa3660046133f6565b611410565b6101dd61030d366004613251565b611436565b610325610320366004613251565b6116ba565b6040516101fe919061354f565b610242610340366004613251565b61196f565b6101dd6103533660046130fd565b611994565b610290610366366004613601565b611bd5565b610325611bff565b61037b611f3f565b6040516101fe919061361a565b610222612006565b61029061039e366004613601565b61201e565b6101dd6103b136600461365c565b612048565b6101dd6103c4366004613695565b6120ca565b6102226103d7366004613251565b61211e565b6102df6103ea366004613251565b6121b2565b6103f76123cc565b6040516101fe91906136fe565b6101f261041236600461373e565b612434565b6104203361246f565b6104455760405162461bcd60e51b815260040161043c9061376f565b60405180910390fd5b5f61044f8461196f565b6001600160a01b0316036104955760405162461bcd60e51b815260206004820152600d60248201526c24b73b30b634b2103a37b5b2b760991b604482015260640161043c565b61049d6124fe565b5f848152600991909101602052604081206104b791612fb7565b5f5b81811015610529576104c96124fe565b5f858152600991909101602052604090208383838181106104ec576104ec613797565b90506020028101906104fe91906137ab565b81546001810183555f928352602090922090916004020161051f8282613963565b50506001016104b9565b5060405183907f42aef131d28b92f4b4eb6c7395ca3cc94a817a2d9678bc46381bdd89c54f1455905f90a2505050565b5f6001600160e01b031982166380ac58cd60e01b148061058957506001600160e01b03198216635b5e139f60e01b145b92915050565b5f816001600160401b038111156105a8576105a861380b565b6040519080825280602002602001820160405280156105d1578160200160208202803683370190505b5090505f5b8281101561062c575f8484838181106105f1576105f1613797565b905060200201359050610605878783612522565b8083838151811061061857610618613797565b6020908102919091010152506001016105d6565b50836001600160a01b0316856001600160a01b03167f30238e16cd5f35581249dce1072ab9c2a32af3d4e781fd1f9c4832e54ca7dbf383604051610670919061361a565b60405180910390a35050505050565b60606106896124fe565b80546106949061381f565b80601f01602080910402602001604051908101604052809291908181526020018280546106c09061381f565b801561070b5780601f106106e25761010080835404028352916020019161070b565b820191905f5260205f20905b8154815290600101906020018083116106ee57829003601f168201915b5050505050905090565b5f61071e6124fe565b5f9283526006016020525060409020546001600160a01b031690565b5f6107448261196f565b905061075083826128cb565b5f61075b8233612434565b9050610789816040518060400160405280600a81526020016934b9a7b832b930ba37b960b11b81525061291f565b816001600160a01b0316846001600160a01b0316036107ea5760405162461bcd60e51b815260206004820152601960248201527f417070726f76616c20746f2063757272656e74206f776e657200000000000000604482015260640161043c565b336001600160a01b03831614806107fe5750805b61081a5760405162461bcd60e51b815260040161043c9061376f565b836108236124fe565b5f858152600691909101602052604080822080546001600160a01b0319166001600160a01b0394851617905551859287811692908616917fed07692b9e85f152a0d34191fb2c409c997274fcdce8df22565d530b55d4b0079190a450505050565b61088d3361246f565b6108a95760405162461bcd60e51b815260040161043c9061376f565b5f6108b26124fe565b905085841480156108c257508382145b6108f95760405162461bcd60e51b815260206004820152600860248201526709ad2e6dac2e8c6d60c31b604482015260640161043c565b5f5b86811015610aae575f88888381811061091657610916613797565b905060200281019061092891906137c9565b8080601f0160208091040260200160405190810160405280939291908181526020018383808284375f920191909152505060408051606081019091528381529293505060208201905088888581811061098357610983613797565b905060200281019061099591906137c9565b8080601f0160208091040260200160405190810160405280939291908181526020018383808284375f920191909152505050908252506020018686858181106109e0576109e0613797565b90506020028101906109f291906137c9565b8080601f0160208091040260200160405190810160405280939291908181526020018383808284375f920191909152505050915250604051600d850190610a3a908490613a7a565b90815260405190819003602001902081518190610a579082613a8b565b5060208201516001820190610a6c9082613a8b565b5060408201516002820190610a819082613a8b565b505050600e830180546001810182555f918252602090912001610aa48282613a8b565b50506001016108fb565b506040517f4bfaecb7d94b190b9c0b18ae6017d714df44399b57eebc5da4b663db8397b044905f90a150505050505050565b5f610ae96124fe565b335f90815260088201602052604090205490915015610b3b5760405162461bcd60e51b815260206004820152600e60248201526d105b1c9958591e481b5a5b9d195960921b604482015260640161043c565b5f816003015f8154610b4c90613b54565b9182905550335f818152600885016020908152604080832085905584835260048701825280832080546001600160a01b03191685179055928252600586019052908120805492935090610b9e83613b54565b9091555050600f82018054600181810183555f8381526020902090910180546001600160a01b031916331790559054610bd79190613b6c565b335f9081526010840160205260408120919091555b600b830154811015610cad575f8281526009840160205260409020600b84018054600a8601919084908110610c2357610c23613797565b905f5260205f2001604051610c389190613bed565b9081526040516020918190038201902082546001810184555f9384529190922060049091020180610c698382613bf8565b50600181810190610c7c90840182613bf8565b50600281810190610c8f90840182613bf8565b50600381810190610ca290840182613bf8565b505050600101610bec565b505f5b600e830154811015610d5e575f828152600c840160205260409020600e84018054600d8601919084908110610ce757610ce7613797565b905f5260205f2001604051610cfc9190613bed565b9081526040516020918190038201902082546001810184555f9384529190922060039091020180610d2d8382613bf8565b50600181810190610d4090840182613bf8565b50600281810190610d5390840182613bf8565b505050600101610cb0565b506001610d696124fe565b335f81815260079290920160209081526040808420909152808320805460ff19169415159490941790935591518392917f2cf689e09cb05e7e71be603090df76ef66fdfd5f723f4086dd4b3d6eee5c43d991a35050565b5f610dc96124fe565b600f0154919050565b610ddb3361246f565b610df75760405162461bcd60e51b815260040161043c9061376f565b5f610e006124fe565b90508786148015610e1057508584145b8015610e1b57508382145b610e525760405162461bcd60e51b815260206004820152600860248201526709ad2e6dac2e8c6d60c31b604482015260640161043c565b5f5b88811015611079575f8a8a83818110610e6f57610e6f613797565b9050602002810190610e8191906137c9565b8080601f0160208091040260200160405190810160405280939291908181526020018383808284375f92019190915250506040805160808101909152838152929350506020820190508a8a85818110610edc57610edc613797565b9050602002810190610eee91906137c9565b8080601f0160208091040260200160405190810160405280939291908181526020018383808284375f92019190915250505090825250602001888885818110610f3957610f39613797565b9050602002810190610f4b91906137c9565b8080601f0160208091040260200160405190810160405280939291908181526020018383808284375f92019190915250505090825250602001868685818110610f9657610f96613797565b9050602002810190610fa891906137c9565b8080601f0160208091040260200160405190810160405280939291908181526020018383808284375f920191909152505050915250604051600a850190610ff0908490613a7a565b9081526040519081900360200190208151819061100d9082613a8b565b50602082015160018201906110229082613a8b565b50604082015160028201906110379082613a8b565b506060820151600382019061104c9082613a8b565b505050600b830180546001810182555f91825260209091200161106f8282613a8b565b5050600101610e54565b506040517fabdbf9347315322cea948f32e317868e586cc48b7b5cc90c756c9f9ac00e302f905f90a1505050505050505050565b6110b73382612964565b6110d35760405162461bcd60e51b815260040161043c9061376f565b6110de838383612522565b505050565b6110ec3361246f565b6111085760405162461bcd60e51b815260040161043c9061376f565b81816111126124fe565b600201916111219190836138af565b507f2e9b34e5ec7377754a85ec13c1e9a442a00db0c46dbdefbb143dd0371fd20c1c8282604051611153929190613cb8565b60405180910390a15050565b60605f61116a6124fe565b600e8101549091505f816001600160401b0381111561118b5761118b61380b565b6040519080825280602002602001820160405280156111e057816020015b6111cd60405180606001604052806060815260200160608152602001606081525090565b8152602001906001900390816111a95790505b5090505f5b828110156114085783600d0184600e01828154811061120657611206613797565b905f5260205f200160405161121b9190613bed565b90815260200160405180910390206040518060600160405290815f820180546112439061381f565b80601f016020809104026020016040519081016040528092919081815260200182805461126f9061381f565b80156112ba5780601f10611291576101008083540402835291602001916112ba565b820191905f5260205f20905b81548152906001019060200180831161129d57829003601f168201915b505050505081526020016001820180546112d39061381f565b80601f01602080910402602001604051908101604052809291908181526020018280546112ff9061381f565b801561134a5780601f106113215761010080835404028352916020019161134a565b820191905f5260205f20905b81548152906001019060200180831161132d57829003601f168201915b505050505081526020016002820180546113639061381f565b80601f016020809104026020016040519081016040528092919081815260200182805461138f9061381f565b80156113da5780601f106113b1576101008083540402835291602001916113da565b820191905f5260205f20905b8154815290600101906020018083116113bd57829003601f168201915b5050505050815250508282815181106113f5576113f5613797565b60209081029190910101526001016111e5565b509392505050565b61141b8383836110ad565b6110de3384848460405180602001604052805f8152506129c2565b61143f3361246f565b61145b5760405162461bcd60e51b815260040161043c9061376f565b5f6114646124fe565b90505f6114708361196f565b90506001600160a01b03811633146114b65760405162461bcd60e51b81526020600482015260096024820152682737ba1037bbb732b960b91b604482015260640161043c565b5f838152600683016020908152604080832080546001600160a01b03191690556001600160a01b03841683526005850190915281208054916114f783613ce6565b90915550505f838152600483016020908152604080832080546001600160a01b03191690556001600160a01b03841683526008850190915281205561153b81612b43565b5f838152600c83016020526040812061155391612fd5565b5f838152600983016020526040812061156b91612fb7565b6001600160a01b0381165f90815260078301602090815260408083208252808320805460ff191690557ff7a4cc25de86b3d5d2cd09869dfdab61b73ade0ec7b7207aea84cf74e0a7694580548251818502810185019093528083527ff7a4cc25de86b3d5d2cd09869dfdab61b73ade0ec7b7207aea84cf74e0a76943949383018282801561161657602002820191905f5260205f20905b815481526020019060010190808311611602575b505050505090505f5b815181101561167d576001600160a01b0384165f9081526003840160205260408120835190919084908490811061165857611658613797565b602002602001015181526020019081526020015f205f9055808060010191505061161f565b5060405185906001600160a01b038516907faf0331555e2d9dc8405bd8f2d20a98c38e9840ef4993aa8fad6ab8059c5c4419905f90a35050505050565b60606116c46124fe565b6009015f8381526020019081526020015f20805480602002602001604051908101604052809291908181526020015f905b82821015611964578382905f5260205f2090600402016040518060800160405290815f820180546117259061381f565b80601f01602080910402602001604051908101604052809291908181526020018280546117519061381f565b801561179c5780601f106117735761010080835404028352916020019161179c565b820191905f5260205f20905b81548152906001019060200180831161177f57829003601f168201915b505050505081526020016001820180546117b59061381f565b80601f01602080910402602001604051908101604052809291908181526020018280546117e19061381f565b801561182c5780601f106118035761010080835404028352916020019161182c565b820191905f5260205f20905b81548152906001019060200180831161180f57829003601f168201915b505050505081526020016002820180546118459061381f565b80601f01602080910402602001604051908101604052809291908181526020018280546118719061381f565b80156118bc5780601f10611893576101008083540402835291602001916118bc565b820191905f5260205f20905b81548152906001019060200180831161189f57829003601f168201915b505050505081526020016003820180546118d59061381f565b80601f01602080910402602001604051908101604052809291908181526020018280546119019061381f565b801561194c5780601f106119235761010080835404028352916020019161194c565b820191905f5260205f20905b81548152906001019060200180831161192f57829003601f168201915b505050505081525050815260200190600101906116f5565b505050509050919050565b5f6119786124fe565b5f9283526004016020525060409020546001600160a01b031690565b3361199e8461196f565b6001600160a01b0316146119e55760405162461bcd60e51b815260206004820152600e60248201526d2737ba103cb7bab9103a37b5b2b760911b604482015260640161043c565b5f6119ee6124fe565b600e8101549091508214611a4e5760405162461bcd60e51b815260206004820152602160248201527f496e76616c6964206e756d626572206f66206d65746164617461206669656c646044820152607360f81b606482015260840161043c565b5f5b82811015611b235781600e018181548110611a6d57611a6d613797565b905f5260205f2001604051611a829190613bed565b6040518091039020848483818110611a9c57611a9c613797565b9050602002810190611aae9190613cfb565b611ab890806137c9565b604051611ac6929190613d0f565b604051809103902014611b1b5760405162461bcd60e51b815260206004820152601760248201527f4d69736d617463686564206d65746164617461206b6579000000000000000000604482015260640161043c565b600101611a50565b505f848152600c820160205260408120611b3c91612fd5565b5f5b82811015611ba4575f858152600c830160205260409020848483818110611b6757611b67613797565b9050602002810190611b799190613cfb565b81546001810183555f9283526020909220909160030201611b9a8282613d1e565b5050600101611b3e565b5060405184907f662ddeed9d1d8fc9e230542912ab9401ea29ff1e9d9e5a57231cbd8e70b6bb64905f90a250505050565b5f611bde6124fe565b6001600160a01b039092165f90815260059290920160205250604090205490565b60605f611c0a6124fe565b600b8101549091505f816001600160401b03811115611c2b57611c2b61380b565b604051908082528060200260200182016040528015611c8757816020015b611c746040518060800160405280606081526020016060815260200160608152602001606081525090565b815260200190600190039081611c495790505b5090505f5b828110156114085783600a0184600b018281548110611cad57611cad613797565b905f5260205f2001604051611cc29190613bed565b90815260200160405180910390206040518060800160405290815f82018054611cea9061381f565b80601f0160208091040260200160405190810160405280929190818152602001828054611d169061381f565b8015611d615780601f10611d3857610100808354040283529160200191611d61565b820191905f5260205f20905b815481529060010190602001808311611d4457829003601f168201915b50505050508152602001600182018054611d7a9061381f565b80601f0160208091040260200160405190810160405280929190818152602001828054611da69061381f565b8015611df15780601f10611dc857610100808354040283529160200191611df1565b820191905f5260205f20905b815481529060010190602001808311611dd457829003601f168201915b50505050508152602001600282018054611e0a9061381f565b80601f0160208091040260200160405190810160405280929190818152602001828054611e369061381f565b8015611e815780601f10611e5857610100808354040283529160200191611e81565b820191905f5260205f20905b815481529060010190602001808311611e6457829003601f168201915b50505050508152602001600382018054611e9a9061381f565b80601f0160208091040260200160405190810160405280929190818152602001828054611ec69061381f565b8015611f115780601f10611ee857610100808354040283529160200191611f11565b820191905f5260205f20905b815481529060010190602001808311611ef457829003601f168201915b505050505081525050828281518110611f2c57611f2c613797565b6020908102919091010152600101611c8c565b60605f611f4a6124fe565b600f8101549091505f816001600160401b03811115611f6b57611f6b61380b565b604051908082528060200260200182016040528015611f94578160200160208202803683370190505b5090505f5b8281101561140857836008015f85600f018381548110611fbb57611fbb613797565b5f9182526020808320909101546001600160a01b031683528201929092526040019020548251839083908110611ff357611ff3613797565b6020908102919091010152600101611f99565b60606120106124fe565b60010180546106949061381f565b5f6120276124fe565b6001600160a01b039092165f90815260089290920160205250604090205490565b806120516124fe565b335f818152600792909201602090815260408084206001600160a01b038816808652925292839020805494151560ff199095169490941790935590517f17307eab39ab6107e8899845ad3d59bd9653f200f220920489ca2b5937696c31906120be90851515815260200190565b60405180910390a35050565b6120d58585856110ad565b6121173386868686868080601f0160208091040260200160405190810160405280939291908181526020018383808284375f920191909152506129c292505050565b5050505050565b60605f61212a8361196f565b6001600160a01b0316036121775760405162461bcd60e51b8152602060048201526014602482015273151bdad95b88191bd95cc81b9bdd08195e1a5cdd60621b604482015260640161043c565b61217f6124fe565b60020161218b83612c54565b60405160200161219c929190613e0c565b6040516020818303038152906040529050919050565b60606121bc6124fe565b600c015f8381526020019081526020015f20805480602002602001604051908101604052809291908181526020015f905b82821015611964578382905f5260205f2090600302016040518060600160405290815f8201805461221d9061381f565b80601f01602080910402602001604051908101604052809291908181526020018280546122499061381f565b80156122945780601f1061226b57610100808354040283529160200191612294565b820191905f5260205f20905b81548152906001019060200180831161227757829003601f168201915b505050505081526020016001820180546122ad9061381f565b80601f01602080910402602001604051908101604052809291908181526020018280546122d99061381f565b80156123245780601f106122fb57610100808354040283529160200191612324565b820191905f5260205f20905b81548152906001019060200180831161230757829003601f168201915b5050505050815260200160028201805461233d9061381f565b80601f01602080910402602001604051908101604052809291908181526020018280546123699061381f565b80156123b45780601f1061238b576101008083540402835291602001916123b4565b820191905f5260205f20905b81548152906001019060200180831161239757829003601f168201915b505050505081525050815260200190600101906121ed565b60606123d66124fe565b600f0180548060200260200160405190810160405280929190818152602001828054801561070b57602002820191905f5260205f20905b81546001600160a01b0316815260019091019060200180831161240d575050505050905090565b5f61243d6124fe565b6001600160a01b039384165f908152600791909101602090815260408083209490951682529290925250205460ff1690565b5f6124a17fc8fcad8db84d3cc18b4c41d551ea0ee66dd599cde068d998e57d5e09332c131f546001600160a01b031690565b6001600160a01b0316826001600160a01b0316036124c157506001919050565b506001600160a01b03165f9081527f74280a4b4c55f9103e616849087d6b766bc3336a420e6c0dacf24ec2d7d7ef9c602052604090205460ff1690565b7fa94ee65e5cde08120007cf11724b7ceacd0a62f5c31251df347a1ebf372267ae90565b5f61252b6124fe565b9050836001600160a01b03166125408361196f565b6001600160a01b0316146125825760405162461bcd60e51b81526020600482015260096024820152682737ba1037bbb732b960b91b604482015260640161043c565b6001600160a01b0383166125d85760405162461bcd60e51b815260206004820152601f60248201527f43616e6e6f74207472616e7366657220746f207a65726f206164647265737300604482015260640161043c565b6001600160a01b0383165f9081526008820160205260409020541561263f5760405162461bcd60e51b815260206004820181905260248201527f526563697069656e7420616c72656164792068617320612070617373706f7274604482015260640161043c565b7ff7a4cc25de86b3d5d2cd09869dfdab61b73ade0ec7b7207aea84cf74e0a769458054604080516020808402820181019092528281527ff7a4cc25de86b3d5d2cd09869dfdab61b73ade0ec7b7207aea84cf74e0a76943935f9391929091908301828280156126cb57602002820191905f5260205f20905b8154815260200190600101908083116126b7575b505050505090505f5b8151811015612778576001600160a01b0386165f90815260038401602052604081208351829085908590811061270c5761270c613797565b602002602001015181526020019081526020015f205411156127705760405162461bcd60e51b815260206004820152601f60248201527f526563697069656e7420616c72656164792068617320696e76656e746f727900604482015260640161043c565b6001016126d4565b505f848152600484016020908152604080832080546001600160a01b0319166001600160a01b038a811691909117909155891683526005860190915281208054916127c283613ce6565b90915550506001600160a01b0385165f90815260058401602052604081208054916127ec83613b54565b90915550506001600160a01b038087165f90815260088501602052604080822082905591871681522084905561282186612b43565b600f83018054600180820183555f8381526020902090910180546001600160a01b0319166001600160a01b038916179055905461285e9190613b6c565b6001600160a01b0386165f9081526010850160205260409020556128828686612d50565b83856001600160a01b0316876001600160a01b03167f8a2c16349b369bbd51ff2ba33654eafdf9baf937815ec1d57d2ae858bf0b75e860405160405180910390a4505050505050565b6040516001600160a01b0380841660248301528216604482015261291b9060640160408051601f198184030181529190526020810180516001600160e01b0316636d786a5560e11b179052612f8c565b5050565b61291b8282604051602401612935929190613e30565b60408051601f198184030181529190526020810180516001600160e01b0316638feac52560e01b179052612f8c565b5f8061296f8361196f565b9050806001600160a01b0316846001600160a01b031614806129aa5750836001600160a01b031661299f84610715565b6001600160a01b0316145b806129ba57506129ba8185612434565b949350505050565b823b1561211757604051630a85bd0160e11b81526001600160a01b0384169063150b7a02906129fb908890889087908790600401613e4a565b6020604051808303815f875af1925050508015612a35575060408051601f3d908101601f19168201909252612a3291810190613e86565b60015b612adb573d808015612a62576040519150601f19603f3d011682016040523d82523d5f602084013e612a67565b606091505b5080515f03612ad35760405162461bcd60e51b815260206004820152603260248201527f4552433732313a207472616e7366657220746f206e6f6e20455243373231526560448201527131b2b4bb32b91034b6b83632b6b2b73a32b960711b606482015260840161043c565b805160208201fd5b6001600160e01b03198116630a85bd0160e11b14612b3b5760405162461bcd60e51b815260206004820181905260248201527f4552433732313a2072656365697665722072656a656374656420746f6b656e73604482015260640161043c565b505050505050565b5f612b4c6124fe565b6001600160a01b0383165f908152601082016020526040812054600f83015492935091612b7b90600190613b6c565b90505f83600f018281548110612b9357612b93613797565b5f91825260209091200154600f850180546001600160a01b039092169250829185908110612bc357612bc3613797565b5f91825260208083209190910180546001600160a01b0319166001600160a01b0394851617905591831681526010860190915260409020839055600f8401805480612c1057612c10613ea1565b5f828152602080822083015f1990810180546001600160a01b03191690559092019092556001600160a01b0396909616815260109094019094525050604081205550565b6060815f03612c7a5750506040805180820190915260018152600360fc1b602082015290565b815f5b8115612ca35780612c8d81613b54565b9150612c9c9050600a83613ec9565b9150612c7d565b5f816001600160401b03811115612cbc57612cbc61380b565b6040519080825280601f01601f191660200182016040528015612ce6576020820181803683370190505b5090505b84156129ba57612cfb600183613b6c565b9150612d08600a86613edc565b612d13906030613eef565b60f81b818381518110612d2857612d28613797565b60200101906001600160f81b03191690815f1a905350612d49600a86613ec9565b9450612cea565b7ff7a4cc25de86b3d5d2cd09869dfdab61b73ade0ec7b7207aea84cf74e0a769458054604080516020808402820181019092528281527ff7a4cc25de86b3d5d2cd09869dfdab61b73ade0ec7b7207aea84cf74e0a76943935f939192909190830182828015612ddc57602002820191905f5260205f20905b815481526020019060010190808311612dc8575b505050505090505f5b8151811015612e89576001600160a01b0384165f908152600384016020526040812083518290859085908110612e1d57612e1d613797565b602002602001015181526020019081526020015f20541115612e815760405162461bcd60e51b815260206004820152601f60248201527f526563697069656e7420616c72656164792068617320696e76656e746f727900604482015260640161043c565b600101612de5565b505f5b8151811015612117575f828281518110612ea857612ea8613797565b6020908102919091018101516001600160a01b0388165f908152600387018352604080822083835290935291909120549091508015612f82576001600160a01b038088165f90815260038701602081815260408084208785528252808420849055938a16835290815282822085835290529081208054839290612f2c908490613eef565b9250508190555081866001600160a01b0316886001600160a01b03167f51e866c8533d4385f872db5ecbbc78914e718cec9fa5481105c30369d8c22e7f84604051612f7991815260200190565b60405180910390a45b5050600101612e8c565b612f9581612f98565b50565b5f6a636f6e736f6c652e6c6f6790505f80835160208501845afa505050565b5080545f8255600402905f5260205f2090810190612f959190612ff3565b5080545f8255600302905f5260205f2090810190612f95919061303a565b80821115613036575f6130068282613070565b613013600183015f613070565b613020600283015f613070565b61302d600383015f613070565b50600401612ff3565b5090565b80821115613036575f61304d8282613070565b61305a600183015f613070565b613067600283015f613070565b5060030161303a565b50805461307c9061381f565b5f825580601f1061308b575050565b601f0160209004905f5260205f2090810190612f9591905b80821115613036575f81556001016130a3565b5f8083601f8401126130c6575f80fd5b5081356001600160401b038111156130dc575f80fd5b6020830191508360208260051b85010111156130f6575f80fd5b9250929050565b5f805f6040848603121561310f575f80fd5b8335925060208401356001600160401b0381111561312b575f80fd5b613137868287016130b6565b9497909650939450505050565b6001600160e01b031981168114612f95575f80fd5b5f60208284031215613169575f80fd5b813561317481613144565b9392505050565b80356001600160a01b0381168114613191575f80fd5b919050565b5f805f80606085870312156131a9575f80fd5b6131b28561317b565b93506131c06020860161317b565b925060408501356001600160401b038111156131da575f80fd5b6131e6878288016130b6565b95989497509550505050565b5f5b8381101561320c5781810151838201526020016131f4565b50505f910152565b5f815180845261322b8160208601602086016131f2565b601f01601f19169290920160200192915050565b602081525f6131746020830184613214565b5f60208284031215613261575f80fd5b5035919050565b5f8060408385031215613279575f80fd5b6132828361317b565b946020939093013593505050565b5f805f805f80606087890312156132a5575f80fd5b86356001600160401b038111156132ba575f80fd5b6132c689828a016130b6565b90975095505060208701356001600160401b038111156132e4575f80fd5b6132f089828a016130b6565b90955093505060408701356001600160401b0381111561330e575f80fd5b61331a89828a016130b6565b979a9699509497509295939492505050565b5f805f805f805f806080898b031215613343575f80fd5b88356001600160401b03811115613358575f80fd5b6133648b828c016130b6565b90995097505060208901356001600160401b03811115613382575f80fd5b61338e8b828c016130b6565b90975095505060408901356001600160401b038111156133ac575f80fd5b6133b88b828c016130b6565b90955093505060608901356001600160401b038111156133d6575f80fd5b6133e28b828c016130b6565b999c989b5096995094979396929594505050565b5f805f60608486031215613408575f80fd5b6134118461317b565b925061341f6020850161317b565b929592945050506040919091013590565b5f8083601f840112613440575f80fd5b5081356001600160401b03811115613456575f80fd5b6020830191508360208285010111156130f6575f80fd5b5f806020838503121561347e575f80fd5b82356001600160401b03811115613493575f80fd5b61349f85828601613430565b90969095509350505050565b5f602082016020835280845180835260408501915060408160051b8601019250602086015f5b8281101561354357603f1987860301845281518051606087526134f76060880182613214565b9050602082015187820360208901526135108282613214565b91505060408201519150868103604088015261352c8183613214565b9650505060209384019391909101906001016134d1565b50929695505050505050565b5f602082016020835280845180835260408501915060408160051b8601019250602086015f5b8281101561354357603f19878603018452815180516080875261359b6080880182613214565b9050602082015187820360208901526135b48282613214565b915050604082015187820360408901526135ce8282613214565b9150506060820151915086810360608801526135ea8183613214565b965050506020938401939190910190600101613575565b5f60208284031215613611575f80fd5b6131748261317b565b602080825282518282018190525f918401906040840190835b81811015613651578351835260209384019390920191600101613633565b509095945050505050565b5f806040838503121561366d575f80fd5b6136768361317b565b91506020830135801515811461368a575f80fd5b809150509250929050565b5f805f805f608086880312156136a9575f80fd5b6136b28661317b565b94506136c06020870161317b565b93506040860135925060608601356001600160401b038111156136e1575f80fd5b6136ed88828901613430565b969995985093965092949392505050565b602080825282518282018190525f918401906040840190835b818110156136515783516001600160a01b0316835260209384019390920191600101613717565b5f806040838503121561374f575f80fd5b6137588361317b565b91506137666020840161317b565b90509250929050565b6020808252600e908201526d139bdd08185d5d1a1bdc9a5e995960921b604082015260600190565b634e487b7160e01b5f52603260045260245ffd5b5f8235607e198336030181126137bf575f80fd5b9190910192915050565b5f808335601e198436030181126137de575f80fd5b8301803591506001600160401b038211156137f7575f80fd5b6020019150368190038213156130f6575f80fd5b634e487b7160e01b5f52604160045260245ffd5b600181811c9082168061383357607f821691505b60208210810361385157634e487b7160e01b5f52602260045260245ffd5b50919050565b601f8211156110de57805f5260205f20601f840160051c8101602085101561387c5750805b601f840160051c820191505b81811015612117575f8155600101613888565b5f19600383901b1c191660019190911b1790565b6001600160401b038311156138c6576138c661380b565b6138da836138d4835461381f565b83613857565b5f601f841160018114613906575f85156138f45750838201355b6138fe868261389b565b845550612117565b5f83815260208120601f198716915b828110156139355786850135825560209485019460019092019101613915565b5086821015613951575f1960f88860031b161c19848701351681555b505060018560011b0183555050505050565b61396d82836137c9565b6001600160401b038111156139845761398461380b565b61399881613992855461381f565b85613857565b5f601f8211600181146139c4575f83156139b25750838201355b6139bc848261389b565b865550613a1b565b5f85815260208120601f198516915b828110156139f357868501358255602094850194600190920191016139d3565b5084821015613a0f575f1960f88660031b161c19848701351681555b505060018360011b0185555b50505050613a2c60208301836137c9565b613a3a8183600186016138af565b5050613a4960408301836137c9565b613a578183600286016138af565b5050613a6660608301836137c9565b613a748183600386016138af565b50505050565b5f82516137bf8184602087016131f2565b81516001600160401b03811115613aa457613aa461380b565b613ab881613ab2845461381f565b84613857565b6020601f821160018114613ae5575f8315613ad35750848201515b613add848261389b565b855550612117565b5f84815260208120601f198516915b82811015613b145787850151825560209485019460019092019101613af4565b5084821015613b3157868401515f19600387901b60f8161c191681555b50505050600190811b01905550565b634e487b7160e01b5f52601160045260245ffd5b5f60018201613b6557613b65613b40565b5060010190565b8181038181111561058957610589613b40565b5f8154613b8b8161381f565b600182168015613ba25760018114613bb757613be4565b60ff1983168652811515820286019350613be4565b845f5260205f205f5b83811015613bdc57815488820152600190910190602001613bc0565b505081860193505b50505092915050565b5f6131748284613b7f565b818103613c03575050565b613c0d825461381f565b6001600160401b03811115613c2457613c2461380b565b613c3281613ab2845461381f565b5f601f821160018114613c55575f8315613ad3575084820154613add848261389b565b5f8581526020808220868352908220601f198616925b83811015613c8b5782860154825560019586019590910190602001613c6b565b5085831015613ca857818501545f19600388901b60f8161c191681555b5050505050600190811b01905550565b60208152816020820152818360408301375f818301604090810191909152601f909201601f19160101919050565b5f81613cf457613cf4613b40565b505f190190565b5f8235605e198336030181126137bf575f80fd5b818382375f9101908152919050565b613d2882836137c9565b6001600160401b03811115613d3f57613d3f61380b565b613d4d81613992855461381f565b5f601f821160018114613d79575f8315613d675750838201355b613d71848261389b565b865550613dd0565b5f85815260208120601f198516915b82811015613da85786850135825560209485019460019092019101613d88565b5084821015613dc4575f1960f88660031b161c19848701351681555b505060018360011b0185555b50505050613de160208301836137c9565b613def8183600186016138af565b5050613dfe60408301836137c9565b613a748183600286016138af565b5f613e178285613b7f565b8351613e278183602088016131f2565b01949350505050565b8215158152604060208201525f6129ba6040830184613214565b6001600160a01b03858116825284166020820152604081018390526080606082018190525f90613e7c90830184613214565b9695505050505050565b5f60208284031215613e96575f80fd5b815161317481613144565b634e487b7160e01b5f52603160045260245ffd5b634e487b7160e01b5f52601260045260245ffd5b5f82613ed757613ed7613eb5565b500490565b5f82613eea57613eea613eb5565b500690565b8082018082111561058957610589613b4056fea26469706673582212208062ce11c0364b08ad196a18b428b59d17af549755c98c128a115d78163caed664736f6c634300081a0033",
  "linkReferences": {},
  "deployedLinkReferences": {}
}